:020000040800F2
:1000000000000120FD3F0008713500087735000829
:100010007D350008833500088935000800000000A0
:100020000000000000000000000000008F35000804
:100030009B35000800000000A7350008B335000814
:10004000454000084540000845400008454000087C
:10005000454000084540000845400008454000086C
:10006000454000084540000845400008454000085C
:10007000454000084540000845400008454000084C
:10008000454000084540000845400008454000083C
:10009000454000084540000845400008454000082C
:1000A000454000084540000845400008454000081C
:1000B000454000084540000845400008454000080C
:1000C00045400008454000084540000845400008FC
:1000D00045400008454000084540000845400008EC
:1000E00045400008454000084540000845400008DC
:1000F00045400008454000084540000845400008CC
:1001000045400008454000084540000845400008BB
:100110004540000845400008C1350008454000083A
:10012000454000084540000845400008454000089B
:1001300000000000000000000000000000000000BF
:1001400000000000000000000000000000000000AF
:10015000000000000000000000000000000000009F
:10016000000000000000000000000000000000008F
:10017000000000000000000000000000000000007F
:10018000000000000000000000000000000000006F
:10019000000000000000000000000000000000005F
:1001A000000000000000000000000000000000004F
:1001B000000000000000000000000000000000003F
:1001C000000000000000000000000000000000002F
:1001D000000000000000000000000000000000001F
:0401E0005FF8E0F1F3
:1001E40010B5054C237833B9044B13B10448AFF36D
:1001F40000800123237010BDBC000020000000001B
:10020400248A000808B5034B1BB103490348AFF324
:10021400008008BD00000000C0000020248A0008FF
:1002240081F0004102E000BF83F0004330B54FEAA3
:1002340041044FEA430594EA050F08BF90EA020F10
:100244001FBF54EA000C55EA020C7FEA645C7FEAA3
:10025400655C00F0E2804FEA5454D4EB5555B8BFC6
:100264006D420CDD2C4480EA020281EA030382EA37
:10027400000083EA010180EA020281EA0303362DC9
:1002840088BF30BD11F0004F4FEA01314FF4801C9C
:100294004CEA113102D0404261EB410113F0004FAE
:1002A4004FEA03334CEA133302D0524263EB430365
:1002B40094EA050F00F0A780A4F10104D5F1200E03
:1002C4000DDB02FA0EFC22FA05F2801841F100015E
:1002D40003FA0EF2801843FA05F359410EE0A5F132
:1002E40020050EF1200E012A03FA0EFC28BF4CF063
:1002F400020C43FA05F3C01851EBE37101F0004519
:1003040007D54FF0000EDCF1000C7EEB00006EEB25
:100314000101B1F5801F1BD3B1F5001F0CD34908AF
:100324005FEA30004FEA3C0C04F101044FEA445206
:1003340012F5800F80F09A80BCF1004F08BF5FEA8D
:10034400500C50F1000041EB045141EA050130BD6D
:100354005FEA4C0C404141EB0101013C28BFB1F57F
:10036400801FE9D291F0000F04BF01460020B1FACA
:1003740081F308BF2033A3F10B03B3F120020CDA9D
:100384000C3208DD02F1140CC2F10C0201FA0CF07B
:1003940021FA02F10CE002F11402D8BFC2F1200CE0
:1003A40001FA02F120FA0CFCDCBF41EA0C01904096
:1003B400E41AA2BF01EB0451294330BD6FEA0404DF
:1003C4001F3C1CDA0C340EDC04F11404C4F12002CA
:1003D40020FA04F001FA02F340EA030021FA04F3DC
:1003E40045EA030130BDC4F10C04C4F1200220FA33
:1003F40002F001FA04F340EA0300294630BD21FA71
:1004040004F0294630BD94F0000F83F4801306BF36
:1004140081F480110134013D4EE77FEA645C18BF2A
:100424007FEA655C29D094EA050F08BF90EA020FC1
:1004340005D054EA000C04BF1946104630BD91EAB9
:10044400030F1EBF0021002030BD5FEA545C05D1BC
:100454004000494128BF41F0004130BD14F58004FB
:100464003CBF01F5801130BD01F0004545F0FE416F
:1004740041F470014FF0000030BD7FEA645C1ABFA4
:10048400194610467FEA655C1CBF0B46024650EADB
:10049400013406BF52EA033591EA030F41F4002107
:1004A40030BD00BF90F0000F04BF0021704730B58D
:1004B4004FF4806404F132044FF000054FF0000162
:1004C40050E700BF90F0000F04BF0021704730B523
:1004D4004FF4806404F1320410F0004548BF4042F8
:1004E4004FF000013EE700BF42004FEAE2014FEA4D
:1004F40031014FEA02701FBF12F07F4393F07F4F28
:1005040081F06051704732F07F4208BF704793F02A
:100514007F4F04BF41F40021704730B54FF460743D
:1005240001F0004521F000411CE700BF50EA010240
:1005340008BF704730B54FF000050AE050EA0102E9
:1005440008BF704730B511F0004502D5404261EB59
:1005540041014FF4806404F132045FEA915C3FF49A
:10056400D8AE4FF003025FEADC0C18BF03325FEA37
:10057400DC0C18BF033202EBDC02C2F1200300FAE8
:1005840003FC20FA02F001FA03FE40EA0E0021FA0D
:1005940002F11444BDE600BF4FEA4102B2F1E04368
:1005A40024BFB3F5001CDCF1FE5C0DD901F0004C56
:1005B4004FEAC0024CEA5070B2F1004F40EB8300A6
:1005C40008BF20F00100704711F0804F21D113F1D2
:1005D4003872BCBF01F00040704741F480114FEA0B
:1005E4005252C2F11802C2F1200C10FA0CF320FA94
:1005F40002F018BF40F001004FEAC1234FEAD323B1
:1006040003FA0CFC40EA0C0023FA02F34FEA43031A
:10061400CCE77FEA625307D150EA01331EBF4FF0A3
:10062400FE4040F44000704701F0004040F0FE40BE
:1006340040F40000704700BF80F0004002E000BFBB
:1006440081F0004142001FBF5FEA410392EA030FB9
:100654007FEA226C7FEA236C6AD04FEA1262D2EB03
:100664001363C1BFD218414048404140B8BF5B4208
:10067400192B88BF704710F0004F40F4000020F0A1
:100684007F4018BF404211F0004F41F4000121F0B7
:100694007F4118BF494292EA030F3FD0A2F1010201
:1006A40041FA03FC10EB0C00C3F1200301FA03F13F
:1006B40000F0004302D5494260EB4000B0F5000F62
:1006C40013D3B0F1807F06D340084FEA310102F121
:1006D4000102FE2A51D2B1F1004F40EBC25008BFD3
:1006E40020F0010040EA03007047490040EB00009D
:1006F400013A28BFB0F5000FEDD2B0FA80FCACF19E
:10070400080CB2EB0C0200FA0CF0AABF00EBC250CA
:1007140052421843BCBFD0401843704792F0000FB8
:1007240081F4000106BF80F400000132013BB5E70B
:100734004FEA41037FEA226C18BF7FEA236C21D081
:1007440092EA030F04D092F0000F08BF08467047E6
:1007540090EA010F1CBF0020704712F07F4F04D1B4
:10076400400028BF40F00040704712F100723CBFC7
:1007740000F50000704700F0004343F0FE4040F4F1
:10078400000070477FEA226216BF08467FEA2363AF
:100794000146420206BF5FEA412390EA010F40F49A
:1007A400800070474FF0000304E000BF10F00043E6
:1007B40048BF40425FEA000C08BF704743F09643CD
:1007C40001464FF000001CE050EA010208BF7047E8
:1007D4004FF000030AE000BF50EA010208BF70476F
:1007E40011F0004302D5404261EB41015FEA010C84
:1007F40002BF84460146002043F0B64308BFA3F17C
:100804008053A3F50003BCFA8CF2083AA3EBC2535D
:1008140010DB01FA02FC634400FA02FCC2F120027C
:10082400BCF1004F20FA02F243EB020008BF20F0B3
:100834000100704702F1200201FA02FCC2F1200219
:1008440050EA4C0021FA02F243EB020008BF20EA0E
:10085400DC7070474FF0FF0C1CEAD0521EBF1CEA3C
:10086400D15392EA0C0F93EA0C0F6FD01A4480EA2A
:10087400010C400218BF5FEA41211ED04FF0006313
:1008840043EA501043EA5111A0FB01310CF000403F
:10089400B1F5000F3EBF490041EAD3715B0040EA65
:1008A400010062F17F02FD2A1DD8B3F1004F40EB35
:1008B400C25008BF20F00100704790F0000F0CF008
:1008C400004C08BF49024CEA502040EA51207F3ACC
:1008D400C2BFD2F1FF0340EAC250704740F40000A7
:1008E4004FF00003013A5DDC12F1190FDCBF00F098
:1008F40000407047C2F10002410021FA02F1C2F146
:10090400200200FA02FC5FEA310040F1000053EAE1
:100914004C0308BF20EADC70704792F0000F00F02F
:10092400004C02BF400010F4000F013AF9D040EA35
:100934000C0093F0000F01F0004C02BF490011F4C9
:10094400000F013BF9D041EA0C018FE70CEAD153C7
:1009540092EA0C0F18BF93EA0C0F0AD030F0004C47
:1009640018BF31F0004CD8D180EA010000F00040FB
:10097400704790F0000F17BF90F0004F084691F0B9
:10098400000F91F0004F14D092EA0C0F01D14202F3
:100994000FD193EA0C0F03D14B0218BF084608D1BC
:1009A40080EA010000F0004040F0FE4040F4000006
:1009B400704740F0FE4040F4400070474FF0FF0C99
:1009C4001CEAD0521EBF1CEAD15392EA0C0F93EAE0
:1009D4000C0F69D0A2EB030280EA010C49024FEA32
:1009E400402037D04FF0805343EA111143EA1013EB
:1009F4000CF000408B4238BF5B0042F17D024FF4A3
:100A0400000C8B4224BF5B1A40EA0C00B3EB510F7D
:100A140024BFA3EB510340EA5C00B3EB910F24BF66
:100A2400A3EB910340EA9C00B3EBD10F24BFA3EBEB
:100A3400D10340EADC001B0118BF5FEA1C1CE0D1B3
:100A4400FD2A3FF650AF8B4240EBC25008BF20F066
:100A5400010070470CF0004C4CEA50207F32C2BFBA
:100A6400D2F1FF0340EAC250704740F400004FF057
:100A74000003013A37E792F0000F00F0004C02BF88
:100A8400400010F4000F013AF9D040EA0C0093F052
:100A9400000F01F0004C02BF490011F4000F013BAC
:100AA400F9D041EA0C0195E70CEAD15392EA0C0F14
:100AB40008D142027FF47DAF93EA0C0F7FF470AF4C
:100AC400084676E793EA0C0F04D14B023FF44CAF8F
:100AD40008466EE730F0004C18BF31F0004CCAD124
:100AE40030F000427FF45CAF31F000437FF43CAF60
:100AF4005FE700BF4FF0FF3C06E000BF4FF0010C82
:100B040002E000BF4FF0010C4DF804CD4FEA400263
:100B14004FEA41037FEA226C18BF7FEA236C11D0AD
:100B240001B052EA530C18BF90EA010F58BFB2EB60
:100B3400030088BFC81738BF6FEAE17018BF40F0E0
:100B4400010070477FEA226C02D15FEA402C05D194
:100B54007FEA236CE4D15FEA412CE1D05DF8040B19
:100B6400704700BF844608466146FFE70FB5FFF7AC
:100B7400C9FF002848BF10F1000F0FBD4DF808ED64
:100B8400FFF7F4FF0CBF012000205DF808FB00BF55
:100B94004DF808EDFFF7EAFF34BF012000205DF8AF
:100BA40008FB00BF4DF808EDFFF7E0FF94BF0120FC
:100BB40000205DF808FB00BF4DF808EDFFF7D2FFF9
:100BC40094BF012000205DF808FB00BF4DF808ED3C
:100BD400FFF7C8FF34BF012000205DF808FB00BF09
:100BE4004FEA4002B2F1FE4F0FD34FF09E03B3EB36
:100BF40012620DD94FEA002343F0004310F0004F76
:100C040023FA02F018BF404270474FF000007047CB
:100C140012F1610F01D1420205D110F0004008BF6A
:100C24006FF0004070474FF00000704780B586B009
:100C340004AF03460A46FB711346BB71FB799AB2B3
:100C44000A23029301230193BB1D009301237821FE
:100C5400034804F06BF800BF0837BD4680BD00BFF1
:100C64005C04002080B500AF642003F04DFAAE218F
:100C74000020FFF7DBFFA6210020FFF7D7FFAE21FE
:100C84000020FFF7D3FFD5210020FFF7CFFF8021FD
:100C94000020FFF7CBFFA8210020FFF7C7FF1F218B
:100CA4000020FFF7C3FFD3210020FFF7BFFF00217F
:100CB4000020FFF7BBFF40210020FFF7B7FF8D2185
:100CC4000020FFF7B3FF14210020FFF7AFFF20211E
:100CD4000020FFF7ABFF02210020FFF7A7FFA121AF
:100CE4000020FFF7A3FFC8210020FFF79FFFDA21B0
:100CF4000020FFF79BFF02210020FFF797FF8121CF
:100D04000020FFF793FFCF210020FFF78FFFD921A9
:100D14000020FFF78BFFF1210020FFF787FFDB2185
:100D24000020FFF783FF40210020FFF77FFF2E21E3
:100D34000020FFF77BFFA4210020FFF777FFA62107
:100D44000020FFF773FFAF210020FFF76FFF0020A3
:100D540000F046F800F00EF8054B00221A80044B10
:100D640000225A80024B01225A7100BF80BD00BF8D
:100D7400D802002080B582B000AF0023FB7125E0CB
:100D8400FB79503BDBB219460020FFF74FFF0021EF
:100D94000020FFF74BFF10210020FFF747FF00233F
:100DA400BB710CE0BA79FB79DB0113440B4AD35CC9
:100DB40019464020FFF73AFFBB790133BB7197F91D
:100DC4000630002BEEDAFB790133FB71FB79072B3C
:100DD400D6D900BF00BF0837BD4680BDD80000206B
:100DE40080B582B000AF0346FB71FB79002B01D1C3
:100DF400002300E0FF234FF400721946034807F074
:100E0400CDF900BF0837BD4680BD00BFD800002023
:100E140080B483B000AF0346FB800B46BB8013460F
:100E2400FB70FB887F2B48D8BB881F2B45D8254BEC
:100E34001B79002B06D0FB78002B0CBF0123002369
:100E4400DBB2FB70FB78012B1AD1FA88BB88DB0874
:100E540098B20346DB0113441B4AD35C5AB2BB88E5
:100E640003F00703012101FA03F35BB2134359B200
:100E7400FA880346DB011344C9B2134AD1541DE076
:100E8400FA88BB88DB0898B20346DB0113440E4A98
:100E9400D35C5AB2BB8803F00703012101FA03F3C0
:100EA4005BB2DB435BB2134059B2FA880346DB0101
:100EB4001344C9B2044AD15400E000BF0C37BD4604
:100EC40080BC7047D8020020D800002080B483B0D2
:100ED40000AF03460A46FB801346BB80054AFB88E5
:100EE4001380044ABB88538000BF0C37BD4680BCC6
:100EF400704700BFD802002080B586B000AF03461B
:100F04003960FB711346BB713A4B1B881A463B6828
:100F14001B7813447F2B07DC364B5B881A463B68EF
:100F24005B7813441F2B01DD00235EE000237B610B
:100F34004BE03B685A68FB79203B3968497801FBF0
:100F440003F319467B690B445B0013441B88FB6065
:100F540000233B6130E0FA683B6902FA03F303F4CF
:100F64000043002B10D0234B1A883B699BB21344D7
:100F740098B2204B5A887B699BB213449BB2BA79CE
:100F84001946FFF745FF14E01A4B1A883B699BB2D8
:100F9400134498B2174B5A887B699BB2134499B295
:100FA400BB79002B0CBF01230023DBB21A46FFF7E9
:100FB4002FFF3B6901333B613B681B781A463B6951
:100FC4009342C8D37B6901337B613B685B781A46E3
:100FD4007B699342ADD3074B1A883B681B789BB25D
:100FE40013449AB2034B1A80FB7918461837BD464E
:100FF40080BD00BFD802002080B584B000AFF86087
:10100400B9601346FB7112E0FB681B78FA79B96882
:101014001846FFF771FF03461A46FB681B789A428D
:1010240002D0FB681B7808E0FB680133FB60FB68B7
:101034001B78002BE8D1FB681B7818461037BD4697
:1010440080BD80B500AF0020FFF7CAFE00BF80BDA1
:1010540080B500AFFFF78EFE00BF80BD80B582B0C3
:1010640000AF7860084611461A460346FB700B46EB
:10107400BB7013467B707B78002B01D0FFF7E1FF38
:10108400FB789BB2BA7892B211461846FFF71EFF5E
:10109400012206497868FFF7AFFF3B7C002B01D0A3
:1010A400FFF7D6FF00BF0837BD4680BD0000002013
:1010B40080B584B002AF7860084611461A460346EC
:1010C400FB700B46BB7013467B70FB78002B12D071
:1010D400FB78032B0FD8FB781A46920013445B006D
:1010E400DBB20A3BDAB2B9787B7800930B46002175
:1010F4007868FFF7B3FF00BF0837BD4680BD000026
:1011040080B500AF072000F031FB03461A46A74B19
:101114001A60082000F02AFB03461A46A44B1A6002
:10112400052000F023FB03461A46A24B1A60062052
:1011340000F01CFB03461A469F4B1A6000F0DCFAD1
:1011440003461A469D4B1A609D4BB3F900301A466C
:101154009C499D4807F02AF80123002202219A485D
:10116400FFF7A6FF914B1B68FF2B0CD1904B1B681C
:10117400FF2B08D18F4B1B68FF2B04D18E4B1B68B0
:10118400FF2B00F0E481894B1B68002B0CD1884BAA
:101194001B68002B08D1874B1B68002B04D1864B9E
:1011A4001B68002B00F0D581804B1B68C02B00F01E
:1011B400D2817F4B1B68C02B00F0CD817D4B1B6817
:1011C400C02B00F0C8817C4B1B68C02B00F0C3818E
:1011D400774B1B687C2B10DC764B1B687D2B0CDD5E
:1011E400744B1B68952B08DC754BB3F900309BB22C
:1011F4001946012001F0E6FA78E06D4B1B68962B46
:1012040010DD6C4B1B687D2B0CDD6A4B1B68952B2A
:1012140008DC6B4BB3F900309BB21946022001F095
:10122400D1FA63E0634B1B687C2B10DC604B1B68BA
:101234007D2B0CDD5E4B1B68952B08DC604BB3F9F2
:1012440000309BB21946032001F0BCFA4EE0594B22
:101254001B68962B10DD564B1B687D2B0CDD544B05
:101264001B68952B08DC564BB3F900309BB219462A
:10127400042001F0A7FA39E04D4B1B687C2B03DCFA
:101284004C4B1B687C2B07DD494B1B68962B0CDDF4
:10129400484B1B687C2B08DC494BB3F900309BB2EC
:1012A4001946052001F08EFA20E0414B1B687C2B87
:1012B40003DC404B1B68962B07DC3D4B1B68962BCD
:1012C4000CDD3C4B1B68962B08DD3D4BB3F900301D
:1012D4009BB21946062001F075FA07E0374B1B68EC
:1012E400002B03D10021002001F06CFA334B1B6862
:1012F400053B0B2B00F21A8101A252F823F000BF28
:10130400FB1300080D1400081F1400083114000812
:101314005F130008D113000835130008891300086F
:10132400431400080315000883140008D5140008AA
:10133400234BB3F900309BB264339BB21AB2204BF7
:101344001A801F4BB3F90030B3F57A7F40F3F08075
:101354001B4B4FF47A721A80EAE0194BB3F9003050
:101364009BB2FA339BB21AB2154B1A80144BB3F9E1
:101374000030B3F57A7F40F3DD80114B4FF47A727D
:101384001A80D7E00E4BB3F900309BB2643B9BB29A
:101394001AB20B4B1A800A4BB3F90030632B00F3DB
:1013A400CB80074B64221A80C6E000BF780300207C
:1013B4007C030020800300207403002084030020A9
:1013C400080000203C8A0008E0020020634BB3F9C7
:1013D40000309BB2FA3B9BB21AB2604B1A805F4B4F
:1013E400B3F9003013F57A7F80F2A8805B4B4FF697
:1013F40018421A80A2E0594BB3F900309BB2194647
:10140400012001F0DFF99EE0544BB3F900309BB2A8
:101414001946042001F0D6F995E0504BB3F9003099
:101424009BB21946022001F0CDF98CE04B4BB3F985
:1014340000309BB21946032001F0C4F983E0484B05
:101444001A78484BA3FB0213D11A49080B44990894
:101454000B46DB005B1AD31ADBB21946032000F0FB
:10146400FBFC3F4B1B780133DAB23D4B1A703C4B0B
:101474001B78072B64D13A4B00221A7060E00022DB
:101484000421394803F05AFA00220821364803F0AF
:1014940055FA00221021344803F050FA00220221A8
:1014A400324803F04BFA002280212F4803F046FA19
:1014B400002204212D4803F041FA294B1B78002B0C
:1014C40040D0274B1B78013BDAB2254B1A7039E028
:1014D400274B1B780133DAB2254B1A70244B1B7847
:1014E400062B02D9224B01221A700021002001F0A0
:1014F40069F91F4B1B78184600F0B6FB23E01C4B20
:101504001B78013BDAB21A4B1A70194B1B78002B6B
:1015140002D1174B06221A700021002001F052F963
:10152400134B1B78184600F09FFB0CE000BF0AE049
:1015340000BF08E000BF06E000BF04E000BF02E017
:1015440000BF00E000BF142002F0DEFD04E000BF95
:1015540002E000BF00E000BF80BD00BF0800002023
:10156400DE02002025499224001801400020014099
:101574000A00002080B584B000AF0346FB7101234C
:10158400FB81264B00225A700123FB813BE0FB893F
:101594009BB21A46FB791340002B05D0012280210F
:1015A4001F4803F0CBF904E0002280211C4803F01B
:1015B400C5F9012220211A4803F0C0F9052000F0E2
:1015C40009FE00222021164803F0B8F9052000F096
:1015D40001FE01222021124803F0B0F940211048F5
:1015E40003F086F90346002B08D0FB899BB2DAB2DC
:1015F4000A4B5B781343DAB2084B5A70FB899BB2EF
:101604005B009BB2FB81FB899BB2FF2BBFD91020EF
:1016140000F0E0FD00BF1037BD4680BDF40200209D
:101624000008014080B582B000AF0023FB710123A4
:10163400BB80002210212D4803F080F92C4B1B782D
:101644001846FFF797FF2A4B5B781846FFF792FF7F
:101654000223FB713DE00123BB802EE00122202107
:10166400224803F06BF9052000F0B4FD002220218C
:101674001E4803F063F9052000F0ACFD012220218F
:101684001A4803F05BF94021184803F031F9034686
:10169400002B0DD0BB889BB2DAB2FB79DBB21946C2
:1016A400144B5B5CF979C9B21343DAB2114B5A5447
:1016B400BB889BB25B009BB2BB80BB889BB2FF2BF9
:1016C400CCD9102000F086FDFB79DBB20133DBB20C
:1016D400FB71FB79DBB2082BBDD901221021034831
:1016E40003F02CF900BF0837BD4680BD0008014057
:1016F4000C000020F402002080B582B000AF00F09E
:1017040045F8FFF78FFF164B1B791B021AB2144BD7
:10171400DB781BB213431BB29AB2124B1A8000231C
:10172400FB7114E00F4B1B881946FB790E4A32F803
:101734001330013B41FA03F303F00103002B03D1FF
:10174400FB790133DBB206E0FB790133FB71FB79F2
:101754000F2BE7D9002318460837BD4680BD00BFCC
:10176400F4020020880300201000002080B483B01D
:1017740000AF0346FB71FB79034AD35C18460C3770
:10178400BD4680BC704700BFF402002080B483B023
:1017940000AF0023FB7106E0FB79074A0021D15416
:1017A400FB790133FB71FB79082BF5D900BF00BF2E
:1017B4000C37BD4680BC7047F402002080B500AFF2
:1017C400002210210F4803F0B9F8102000F002FDA8
:1017D4000120FFF7CFFE4220FFF7CCFE0020FFF7E9
:1017E400C9FE0020FFF7C6FE0020FFF7C3FE01225A
:1017F4001021044803F0A2F8102000F0EBFC00BF15
:1018040080BD00BF0008014080B500AF0022102158
:10181400154803F093F8102000F0DCFC0120FFF7DA
:10182400A9FE4320FFF7A6FE0020FFF7A3FE012038
:10183400FFF7A0FE0020FFF79DFE0020FFF79AFEB1
:101844000020FFF797FE0020FFF794FE0020FFF72B
:1018540091FE01221021044803F070F8102000F0DA
:10186400B9FC00BF80BD00BF0008014080B500AFD7
:1018740000221021134803F061F80120FFF77AFEDB
:101884004420FFF777FE0020FFF774FE0120FFF7E6
:1018940071FE0320FFF76EFE0020FFF76BFE0020B1
:1018A400FFF768FE0020FFF765FE0020FFF762FEE9
:1018B40001221021034803F041F8102000F08AFCB3
:1018C40000BF80BD0008014080B500AF0022102198
:1018D400154803F033F8102000F07CFC0120FFF7DA
:1018E40049FE4320FFF746FE0020FFF743FE002099
:1018F400FFF740FE5A20FFF73DFE5A20FFF73AFE5D
:101904005A20FFF737FE5A20FFF734FE5A20FFF71C
:1019140031FE01221021044803F010F8102000F0D9
:1019240059FC00BF80BD00BF0008014080B500AF76
:10193400FFF744FFFFF742FFFFF740FFFFF764FFA5
:10194400FFF794FFFFF7C0FF00BF80BD80B584B0F0
:1019540000AF78600023FB730CE0FB7B1946032087
:1019640000F07AFA7B689BB2184600F071FCFB7BAE
:101974000133FB73FB7B062BEFD900BF00BF10378D
:10198400BD4680BD80B584B000AF78600023FB7392
:101994002AE0FA7B184BA3FB0213D11A49080B4423
:1019A40099080B46DB005B1AD31ADBB219460120F7
:1019B40000F052FAFB7B5A1C104B83FB02131344B6
:1019C4009910D317C91A0B46DB005B1AD11ACBB294
:1019D4001946022000F040FA7B689BB2184600F0DA
:1019E40037FCFB7B0133FB73FB7B072BD1D900BF97
:1019F40000BF1037BD4680BD2549922493244992E7
:101A040080B584B000AF03463960FB71FB79002BCD
:101A140035D10023FB732EE0FA7B354BA3FB021375
:101A2400D11A49080B4499080B46DB005B1AD31AF8
:101A3400DBB21946022000F00FFA3B689BB218464D
:101A440000F006FCFA7B2A4BA3FB0213D11A4908C7
:101A54000B4499080B46DB005B1AD31ADBB2194618
:101A6400012000F0F9F93B689BB2184600F0F0FB46
:101A7400FB7B0133FB73FB7B062BCDD934E00023C6
:101A8400BB732EE0BA7B1A4BA3FB0213D11A49088D
:101A94000B4499080B46DB005B1AD31ADBB21946D8
:101AA400012000F0D9F93B689BB2184600F0D0FB46
:101AB400BA7B0F4BA3FB0213D11A49080B449908B4
:101AC4000B46DB005B1AD31ADBB21946022000F086
:101AD400C3F93B689BB2184600F0BAFBBB7B0133E9
:101AE400BB73BB7B062BCDD900BF1037BD4680BD71
:101AF4002549922480B584B000AF03463960FB7158
:101B0400FB79002B53D10023FB734CE0FA7B534B3E
:101B1400A3FB0213D11A49080B4499080B46DB00B6
:101B24005B1AD31ADBB21946022000F095F90022A1
:101B340004214B4802F002FF00220821484802F029
:101B4400FDFE00221021464802F0F8FE3B689BB2DD
:101B5400184600F07DFB00220221424802F0EEFE0E
:101B6400002280213E4802F0E9FE002204213D4883
:101B740002F0E4FEFA7B394BA3FB0213D11A4908A5
:101B84000B4499080B46DB005B1AD31ADBB21946E7
:101B9400012000F061F93B689BB2184600F058FB45
:101BA400FB7B0133FB73FB7B062BAFD952E0002395
:101BB400BB734CE0002202212A4802F0BFFE00223F
:101BC4008021274802F0BAFE00220421254802F0B1
:101BD400B5FEBA7B214BA3FB0213D11A49080B446F
:101BE40099080B46DB005B1AD31ADBB219460120B5
:101BF40000F032F93B689BB2184600F029FBBA7B2F
:101C0400164BA3FB0213D11A49080B4499080B463F
:101C1400DB005B1AD31ADBB21946022000F01CF970
:101C2400002204210E4802F089FE002208210C48FB
:101C340002F084FE00221021094802F07FFE3B6876
:101C44009BB2184600F004FBBB7B0133BB73BB7B28
:101C5400062BAFD900BF1037BD4680BD254992245D
:101C6400001801400020014080B582B000AF034657
:101C7400FB71FB79013B052B00F2E68001A252F8CF
:101C840023F000BFA11C0008E71C00082D1D00085C
:101C9400751D0008BD1D0008051E00084FF4C8701E
:101CA400FFF754FE00220421694802F047FE002297
:101CB4000821674802F042FE00221021644802F025
:101CC4003DFE00220221634802F038FE00228021FA
:101CD4005F4802F033FE002204215E4802F02EFE2B
:101CE400B2E04FF4AF70FFF74DFE002204215848D4
:101CF40002F024FE00220821554802F01FFE0022B3
:101D04001021534802F01AFE00220221514802F029
:101D140015FE002280214E4802F010FE002204210C
:101D24004C4802F00BFE8FE04FF4FA710020FFF7ED
:101D340067FE00220421464802F000FE002208212A
:101D4400434802F0FBFD00221021414802F0F6FD59
:101D5400002202213F4802F0F1FD002280213C488C
:101D640002F0ECFD002204213A4802F0E7FD6BE0AA
:101D74004FF4FA710120FFF743FE00220421344896
:101D840002F0DCFD00220821314802F0D7FD0022D8
:101D940010212F4802F0D2FD002202212D4802F02A
:101DA400CDFD002280212A4802F0C8FD0022042132
:101DB400284802F0C3FD47E04FF4C8710020FFF744
:101DC40099FE00220421224802F0B8FD00220821D5
:101DD4001F4802F0B3FD002210211D4802F0AEFDA1
:101DE400002202211B4802F0A9FD0022802118488C
:101DF40002F0A4FD00220421164802F09FFD23E016
:101E04004FF4C8710120FFF775FE00220421104829
:101E140002F094FD002208210D4802F08FFD0022FB
:101E240010210B4802F08AFD00220221094802F029
:101E340085FD00228021064802F080FD0022042155
:101E4400044802F07BFD00BF00BF0837BD4680BDDB
:101E5400001801400020014080B584B000AF034663
:101E64000A46FB711346BB71FB79FB73FB7B032BA7
:101E740010D0032B17DC012B02D0022B05D012E06B
:101E8400BB79184600F036F82CE0BB79184600F010
:101E9400D1F827E0BB79184600F02CF8BB79184636
:101EA40000F0C8F81EE000220421104802F046FDAC
:101EB400002208210D4802F041FD002210210B48A8
:101EC40002F03CFD00220221094802F037FD002205
:101ED4008021064802F032FD00220421044802F069
:101EE4002DFD00BF00BF1037BD4680BD0018014066
:101EF4000020014080B582B000AF0346FB71FB793E
:101F0400062B00F2818001A252F823F02D1F000855
:101F14004D1F00086D1F00088D1F0008AD1F00082D
:101F2400CD1F0008ED1F000801220421404802F0E3
:101F340005FD002208213E4802F000FD0022102188
:101F44003B4802F0FBFC6FE000220421384802F019
:101F5400F5FC01220821364802F0F0FC0022102191
:101F6400334802F0EBFC5FE000220421304802F029
:101F7400E5FC002208212E4802F0E0FC0122102199
:101F84002B4802F0DBFC4FE001220421284802F038
:101F9400D5FC01220821264802F0D0FC00221021A1
:101FA400234802F0CBFC3FE001220421204802F048
:101FB400C5FC002208211E4802F0C0FC01221021A9
:101FC4001B4802F0BBFC2FE000220421184802F059
:101FD400B5FC01220821164802F0B0FC01221021B0
:101FE400134802F0ABFC1FE001220421104802F068
:101FF400A5FC012208210E4802F0A0FC01221021B8
:102004000B4802F09BFC0FE000220421084802F078
:1020140095FC00220821064802F090FC00221021C1
:10202400034802F08BFC00BF00BF0837BD4680BDEB
:102034000018014080B582B000AF0346FB71FB7904
:10204400062B00F2818001A252F823F06D200008D3
:102054008D200008AD200008CD200008ED200008E8
:102064000D2100082D21000801220221404802F020
:1020740065FC002280213F4802F060FC002204211C
:102084003B4802F05BFC6FE000220221384802F07A
:1020940055FC01228021374802F050FC0022042123
:1020A400334802F04BFC5FE000220221304802F08A
:1020B40045FC002280212F4802F040FC012204212B
:1020C4002B4802F03BFC4FE001220221284802F099
:1020D40035FC01228021274802F030FC0022042133
:1020E400234802F02BFC3FE001220221204802F0A9
:1020F40025FC002280211F4802F020FC012204213B
:102104001B4802F01BFC2FE000220221184802F0B9
:1021140015FC01228021174802F010FC0122042141
:10212400134802F00BFC1FE001220221104802F0C8
:1021340005FC012280210F4802F000FC0122042149
:102144000B4802F0FBFB0FE000220221084802F0DA
:10215400F5FB00228021074802F0F0FB0022042155
:10216400034802F0EBFB00BF00BF0837BD4680BD4B
:10217400002001400018014080B500AF00F01EF8B7
:1021840000F0DAFC00F0CCFFFEF76CFD0123002226
:1021940001210648FEF78CFFFFF7C8FB002300224D
:1021A4000021002000F0ACF900BF80BD4C8A00087B
:1021B40080B500AFFEF7A4FF00BF80BD80B400AFC0
:1021C400034B48221A6000BFBD4680BC704700BF65
:1021D4000003002080B489B000AF78600023BB61A5
:1021E400194B5B687B61194B1A687B6802FB03F32C
:1021F4003B61154B9B68FB61134B9B68FB60FA6862
:10220400FB699A42F8D0FA68FB699A4206D2FA69E5
:10221400FB68D31ABA691344BB6107E07A69FB68A7
:10222400D21AFB691344BA691344BB61FB68FB61AE
:10223400BA693B699A4200D2DEE700BF00BF243787
:10224400BD4680BC704700BF10E000E000030020E2
:1022540080B582B000AF0346FB80FB884FF47A72EE
:1022640002FB03F31846FFF7B5FF00BF0837BD466E
:1022740080BD000080B485B000AF0346FB7100232D
:10228400FB81FB79032B41D801A252F823F000BF54
:10229400A5220008BF220008DD220008F72200085A
:1022A4001E4B5B6A9BB2C3F5FF437F339BB2FB813A
:1022B4001A4B47F6FF725A6229E04FF080435B6A7B
:1022C4009BB2C3F5FF437F339BB2FB814FF0804346
:1022D40047F6FF725A621AE0114B5B6A9BB2C3F570
:1022E400FF437F339BB2FB810D4B47F6FF725A626B
:1022F4000DE00C4B5B6A9BB2C3F5FF437F339BB28B
:10230400FB81084B47F6FF725A6200E000BFB7F941
:102314000E3018461437BD4680BC70470008004094
:10232400000C00400004004080B483B000AF78602B
:102334000B4B1A687B681A607B680433094A12687D
:102344001A607B680833084A12681A607B680C3389
:10235400064A12681A6000BF0C37BD4680BC70473D
:1023640004030020080300200C03002010030020B5
:1023740080B500AF0020FFF77DFF03461A46124BDD
:102384001B689B1A104A13600120FFF773FF034672
:102394001A460E4B1B689B1A0C4A13600220FFF767
:1023A40069FF03461A460A4B1B681344084A136024
:1023B4000320FFF75FFF03461A46064B1B681344CE
:1023C400044A136000BF80BD0403002008030020FA
:1023D4000C0300201003002080B400AF024B184609
:1023E400BD4680BC704700BF0000824480B483B007
:1023F40000AF0346FB71FB79002B03D1054B002290
:102404001A7002E0034B01221A7000BF0C37BD465C
:1024140080BC70476503002090B583B000AF0446CC
:10242400084611461A462346FB800346BB800B46EA
:102434007B8013463B80B7F9063013F5616F0ADBE6
:10244400B7F90630B3F5616F05DCB7F90630194604
:10245400002000F0D1FDB7F9043013F5616F0ADBF9
:10246400B7F90430B3F5616F05DCB7F904301946E8
:10247400012000F0C1FDB7F9023013F5616F0ADBEA
:10248400B7F90230B3F5616F05DCB7F902301946CC
:10249400022000F0B1FDB7F9003013F5616F0ADBDB
:1024A400B7F90030B3F5616F05DCB7F900301946B0
:1024B400032000F0A1FD00BF0C37BD4690BD000015
:1024C40080B582B000AF0346FB71002300220021D7
:1024D400002000F015F8042000F066FC064B0022F2
:1024E4001A70064B00221A70FB79184600F038FD6A
:1024F40000BF0837BD4680BD64030020650300208B
:1025040090B585B000AF0446084611461A462346E6
:10251400FB800346BB800B467B8013463B80184BF5
:1025240001221A70174AFB881384164ABB88538405
:10253400144A7B889384134A3B88D3840023FB7317
:1025440016E0FB7B0F4A103332F913301846FDF7BF
:10255400B9FF02460B4610461946FEF71DF802461F
:10256400FB7B1146184600F0ABFCFB7B0133FB738D
:10257400FB7B032BE5D900BF00BF1437BD4690BDDC
:10258400640300208C03002080B58AB000AF78601B
:1025940000237B6207F1080300221A605A609A60E4
:1025A400DA6000F0D5F83862FFF716FFF86100F042
:1025B400C5F8B86100F0D6F800237B621FE05B4ADF
:1025C4007B6A52F82330642202FB03F31846FEF7B9
:1025D400EDF80346396A1846FEF73CF90346F969F3
:1025E4001846FEF7EBF903461A467B6A9B0007F18F
:1025F40028010B4443F8202C7B6A01337B627B6AFD
:10260400032BDCDDBB68FA6811461846FEF71AF89E
:1026140003461A463B6919461046FEF713F803466B
:102624001A467B6919461046FEF70CF803464FF02C
:1026340081411846FEF7C2F903461846FEF7D0FA60
:1026440003461AB27B681A80BB68FA6811461846BA
:10265400FDF7F6FF03461A463B6919461046FDF797
:10266400EFFF03461A467B6919461046FDF7EAFF59
:10267400034683F000434FF081411846FEF79EF96C
:1026840003461846FEF7ACFA03461AB27B685A8032
:10269400BB68FA6811461846FDF7D4FF03461A468C
:1026A4003B6919461046FDF7CBFF03461A467B6982
:1026B40019461046FDF7C4FF034683F000434FF06C
:1026C40081411846FEF77AF90346B9691846FEF7C0
:1026D40075F9034616491846FEF7BCF80346184632
:1026E400FEF77EFA03461AB27B689A80114B1B7878
:1026F400002B16D000237B620DE07B6A9B0007F160
:102704002802134453F8202C0B497B6A41F82320F8
:102714007B6A01337B627B6A032BEEDD064800F0A3
:102724001BFB00BF2837BD4680BD00BF54030020FB
:1027340000007A44640300208C03002080B400AFBE
:10274400024B1846BD4680BC704700BF00001F43C3
:1027540080B400AF024B1846BD4680BC704700BF32
:10276400F8334C4380B582B000AF1348FFF7DCFD6B
:102774000023FB7117E0FB790F4A52F82310FB7911
:102784000E4A52F82320FB798A1A0D4941F8232076
:10279400FA79FB79084951F82220084941F82320A5
:1027A400FB790133FB71FB79032BE4D900BF00BF34
:1027B4000837BD4680BD00BF340300204403002019
:1027C4005403002080B582B000AF03460A46FB7173
:1027D4001346BB803F4ABB881380FB79072B73D811
:1027E40001A252F823F000BF0D2800082728000892
:1027F400372800084B2800086B28000885280008A3
:10280400A3280008C5280008324B00221A80BB8880
:10281400002B14BF01230023DBB21846FFF750FE40
:1028240053E0B7F9043000220021184600F054F8B0
:102834004BE0BB885B429BB21BB2002200211846CE
:1028440000F04AF841E0BB885B089BB218B2BB8831
:102854001A46D203D31A5B009BB21BB21A4600215C
:1028640000F03AF831E0BB885B089BB218B2BB8831
:102874005B009BB21BB21A46002100F02DF824E045
:102884000020FFF7B3FDBB881A46920013449BB2A5
:102894001BB21A460021002000F01EF815E00020AB
:1028A400FFF7A4FDBB881A469203D21A9200D31AEA
:1028B4009BB21BB21A460021002000F00DF804E080
:1028C4000120FFF7FDFD00E000BF00BF0837BD4653
:1028D40080BD00BF3003002080B584B000AF034644
:1028E400FB800B46BB8013467B80FFF727FFF86015
:1028F4006F4B4FF000021A60B7F906301846FDF727
:1029040055FF03466B4A1360B7F902301846FDF7CA
:102914004DFF034668491846FEF750F80346F96828
:102924001846FDF797FF03461A46644B1A60B7F939
:102934000630002B0BD1B7F90430002B07D1B7F9BF
:102944000230002B03D10120FFF7BAFDADE0594B53
:102954001B68574A126811461846FDF773FE034672
:102964001A46564B1B6819461046FDF76BFE034684
:102974001846FEF735F90346514A13604D4B1B6860
:102984004B4A126811461846FDF75AFE03461A468A
:102994004A4B1B6819461046FDF754FE0346184679
:1029A400FEF71EF90346474A1360424B1B68404A30
:1029B400126811461846FDF743FE03461A463F4B7C
:1029C4001B6819461046FDF73BFE03461846FEF702
:1029D40007F903463C4A1360364B1B68344A1268B5
:1029E40011461846FDF72EFE03461A46334B1B6864
:1029F40019461046FDF724FE03461846FEF7F0F884
:102A04000346324A13602E4B1B68B3F57A7F03DD0D
:102A14002B4B4FF47A721A60294B1B6813F57A7F9B
:102A240002DA274B2A4A1A60264B1B68B3F57A7FD1
:102A340003DD244B4FF47A721A60224B1B6813F5A2
:102A44007A7F02DA1F4B224A1A601F4B1B68B3F5C8
:102A54007A7F03DD1C4B4FF47A721A601A4B1B68A1
:102A640013F57A7F02DA184B194A1A60174B1B6860
:102A7400B3F57A7F03DD154B4FF47A721A60134B6A
:102A84001B6813F57A7F02DA104B114A1A600C4B5B
:102A94001B6818B20B4B1B6819B20B4B1B681AB29C
:102AA4000A4B1B681BB2FFF72BFD1037BD4680BDD8
:102AB400140300201803002000007A441C030020A3
:102AC4002003002024030020280300202C030020DE
:102AD40018FCFFFFF8B500AF1448FFF755FD144B81
:102AE4001B78002B20D0134B1B691846FEF778F88F
:102AF40003461CB20F4B5B691846FEF771F8034698
:102B04001DB20C4B9B691846FEF76AF803461EB2C9
:102B1400084BDB691846FEF763F803461BB23246DE
:102B240029462046FFF778FC00BFF8BDB403002017
:102B3400640300208C03002080B483B000AF002322
:102B44007B6062E03A497A6813469B001344DB00D9
:102B54000B444FF000021A6035497A6813469B0013
:102B64001344DB000B4408334FF000021A60304971
:102B74007A6813469B001344DB000B4418334FF070
:102B840000021A602A497A6813469B001344DB004A
:102B94000B441C334FF000021A6025497A6813462F
:102BA4009B001344DB000B4420334FF000021A60F7
:102BB4001F497A6813469B001344DB000B442433FB
:102BC4004FF000021A601A497A6813469B001344B6
:102BD400DB000B440C33174A1A6015497A68134614
:102BE4009B001344DB000B441033134A1A60104952
:102BF4007A6813469B001344DB000B4414334FF0F4
:102C04007C521A607B6801337B607B68032B99DDFF
:102C14000A4B0B4A5A60094B4FF000029A60074B6B
:102C2400084ADA6000BF0C37BD4680BC704700BF5D
:102C3400BC030020CDCC4C3F8FC2753D300000203A
:102C4400CDCCCC3ECDCCCC3D2DE9F04182B000AF13
:102C5400786039607B681B6839681846FDF7F0FCBA
:102C640003461A467B689A617B689C687B68DD68CA
:102C74007B689A697B681B6A19461046FDF7E0FC7D
:102C8400034619462846FDF7E5FD03461D467B68C5
:102C94001A697B689B6919461046FDF7DBFD0346FC
:102CA40019462846FDF7CEFC034698467B685D69C5
:102CB4007B689E697B681B6A19461846FDF7C2FC4F
:102CC400034619463046FDF7BBFC03461A467B68AB
:102CD400DB6919461046FDF7B5FC0346194628463C
:102CE400FDF7B8FD034619464046FDF7ABFC034625
:102CF40019462046FDF7A6FC03461A467B689A60EF
:102D04007B681A6A7B68DA617B689A697B681A62F5
:102D14007B689B680E491846FDF758FF0346002B55
:102D240002D07B680A4A9A607B689B680949184606
:102D3400FDF72EFF0346002B02D07B68054A9A60FC
:102D44007B689B6818460837BD46BDE8F08100BF24
:102D54000000C8440000C8C480B584B000AF7860E7
:102D64000023FB6016E0FA6813469B001344DB0063
:102D74000C4A98187B68FA6853F822301946FFF712
:102D840063FF01467B68FA68043243F82210FB684B
:102D94000133FB60FB68032BE5DD00BF00BF103788
:102DA400BD4680BDBC03002080B485B000AF03469F
:102DB400FB71FB79042B7BD8FB79042B40D10023D6
:102DC400FB6039E03D49FA6813469B001344DB007D
:102DD4000B4408334FF000021A603849FA6813466E
:102DE4009B001344DB000B4418334FF000021A60BD
:102DF4003249FA6813469B001344DB000B441C332E
:102E04004FF000021A602D49FA6813469B001344E0
:102E1400DB000B4420334FF000021A602749FA68A4
:102E240013469B001344DB000B4424334FF0000291
:102E34001A60FB680133FB60FB68032BC2DD38E0DA
:102E4400FA791E4913469B001344DB000B440833F4
:102E54004FF000021A60FA79184913469B00134494
:102E6400DB000B4418334FF000021A60FA7913495F
:102E740013469B001344DB000B441C334FF0000249
:102E84001A60FA790D4913469B001344DB000B4486
:102E940020334FF000021A60FA79084913469B0068
:102EA4001344DB000B4424334FF000021A6000E0AB
:102EB40000BF1437BD4680BC704700BFBC03002070
:102EC40080B485B000AF03463960FB71FB79042BF5
:102ED4001FD8FB79042B12D10023FB600BE00F49B0
:102EE400FA6813469B001344DB000B443A681A60EB
:102EF400FB680133FB60FB68032BF0DD0AE0FA7921
:102F0400064913469B001344DB000B443A681A60DD
:102F140000E000BF1437BD4680BC7047BC030020EE
:102F240080B483B000AF0346FB80B7F90630002BB2
:102F340005DDFB8803F5FA639BB21BB20AE0B7F91F
:102F44000630002B05DAFB88A3F5FA639BB21BB2AB
:102F540000E0002318460C37BD4680BC70470000D3
:102F640080B483B000AF0346FB71FB79002B01D022
:102F74000123FB71FB794FF4616202FB03F21C4BEA
:102F84005A63FB794FF4616202FB03F2184B9A63B4
:102F9400FB794FF4616202FB03F2154BDA63FB79B0
:102FA4004FF4616202FB03F2114B1A64FB794FF494
:102FB400616202FB03F20F4B5A63FB794FF46162C7
:102FC40002FB03F20B4B9A63FB794FF4616202FB41
:102FD40003F2084BDA63FB794FF4616202FB03F2FC
:102FE400044B1A6400BF0C37BD4680BC704700BF59
:102FF40000340140002C014080B584B000AF03468A
:103004000A46FB711346BB80B7F904301846FFF734
:1030140087FF0346FB81B7F90E30B3F5616F02DB1E
:103024004FF46163FB81B7F90E3013F5616F02DC75
:103034004FF2F013FB81FB79032B67D801A252F8FE
:1030440023F000BF593000088B300008BD30000861
:10305400E7300008FB895B429BB2FB81B7F90E3075
:10306400002B07DB2C4AB7F90E3053632A4B00229E
:103074009A634CE0284B00225A63B7F90E305A4247
:10308400254B9A6343E0FB895B429BB2FB81B7F912
:103094000E30002B07DB204AB7F90E30D3631E4BEA
:1030A40000221A6433E01C4B0022DA63B7F90E30B5
:1030B4005A42194B1A642AE0B7F90E30002B07DB89
:1030C400164AB7F90E305363144B00229A631EE07C
:1030D400124B00225A63B7F90E305A420F4B9A63CF
:1030E40015E0B7F90E30002B07DB0C4AB7F90E30A8
:1030F400D3630A4B00221A6409E0084B0022DA6306
:10310400B7F90E305A42054B1A6400E000BF00BF05
:103114001037BD4680BD00BF00340140002C014083
:1031240080B500AF0021224803F048F9042120486B
:1031340003F044F908211E4803F040F90C211C480F
:1031440003F03CF900211B4803F038F90421194825
:1031540003F034F90821174803F030F90C2115481D
:1031640003F02CF94FF0804347F6FF725A620421B2
:10317400114803F0EFFB114B47F6FF725A6204212A
:103184000F4803F0E7FB0F4B47F6FF725A62042126
:103194000D4803F0DFFB0D4B47F6FF725A62042122
:1031A4000B4803F0D7FB0B4802F098FF00BF80BD2B
:1031B40018060020B004002060060020000400402F
:1031C4008805002000080040F8040020000C00409E
:1031D40040050020D005002080B582B000AF7860A3
:1031E4007B681B68054A934203D1FFF7C1F8FFF7D8
:1031F40071FC00BF0837BD4680BD00BF0010004011
:1032040080B58AB000AF07F1180300221A605A6033
:103214009A60DA60484B9B69474A43F040039361E4
:10322400454B9B6903F040037B617B69424B9B697F
:10323400414A43F0040393613F4B9B6903F0040349
:103244003B613B693C4B9B693B4A43F4807393610C
:10325400394B9B6903F48073FB60FB68364B9B69B5
:10326400354A43F020039361334B9B6903F02003F9
:10327400BB60BB68304B9B692F4A43F010039361DA
:103284002D4B9B6903F010037B607B682A4B9B6981
:10329400294A43F008039361274B9B6903F0080311
:1032A4003B603B6800229C21244801F047FB00223C
:1032B400B021234801F042FB00220621214801F0FD
:1032C4003DFB9C23BB610123FB6100233B62012383
:1032D4007B6207F118031946184801F075F8B0230A
:1032E400BB610123FB6100233B6201237B6207F185
:1032F40018031946124801F067F84023BB61002304
:10330400FB6101233B6207F1180319460C4801F0E5
:103314005BF80623BB610123FB6100233B620123AD
:103324007B6207F118031946064801F04DF800BF07
:103334002837BD4680BD00BF001002400018014080
:10334400000801400020014080B500AF124B134A31
:103354001A60114B124A5A600F4B00229A600E4BAE
:103364000022DA600C4B4FF480421A610A4B0022AF
:103374005A61094B00229A61074B0022DA61064B1D
:1033840000221A62044801F00BFB0346002B01D013
:1033940000F0A8F800BF80BD5C0400200054004089
:1033A400801A060080B588B000AF786007F110037A
:1033B40000221A605A609A60DA607B681B68154ABA
:1033C400934223D1144B9B69134A43F0080393613E
:1033D400114B9B6903F00803FB60FB68C0233B614E
:1033E40012237B610323FB6107F1100319460B4889
:1033F40000F0EAFF084BDB69074A43F40013D3618A
:10340400054BDB6903F40013BB60BB6800BF2037C6
:10341400BD4680BD0054004000100240000C014035
:1034240080B500AF00F00EFE00F017F8FFF7E8FEDD
:1034340000F00AF900F0CCF900F01EFA00F070FA7E
:1034440000F0C2FA00F014FB00F048FBFFF77CFF29
:10345400FEF792FEFEF7ACFEFCE780B590B000AF3D
:1034640007F1180328220021184604F097FE3B1D9B
:1034740000221A605A609A60DA601A610123BB6103
:103484004FF48033FB6100233B620123BB620223C0
:103494007B634FF48033BB634FF4E013FB6307F1AA
:1034A4001803184601F0B6FF0346002B01D000F0C4
:1034B40019F80F237B600223BB600023FB604FF4E9
:1034C40080633B6100237B613B1D0221184602F0AF
:1034D40011FB0346002B01D000F004F800BF403775
:1034E400BD4680BD80B400AF72B600BFFEE780B4B5
:1034F40083B000AF7860396000BF0C37BD4680BC34
:103504007047000080B584B000AF164B9B69154A24
:1035140043F001039361134B9B6903F00103BB6008
:10352400BB68104BDB690F4A43F08053D3610D4BEA
:10353400DB6903F080537B607B68052000F0D4FED8
:10354400094B5B68FB60FB6823F0E063FB60FB688E
:1035540043F00073FB60044AFB68536000BF1037FC
:10356400BD4680BD001002400000014080B400AFA1
:10357400FEE780B400AFFEE780B400AFFEE780B49E
:1035840000AFFEE780B400AFFEE780B400AF00BF39
:10359400BD4680BC704780B400AF00BFBD4680BC50
:1035A400704780B400AF00BFBD4680BC704780B593
:1035B40000AF00F08DFD00BF80BD000080B500AFFE
:1035C400024803F085FA00BF80BD00BFD00500208B
:1035D40080B586B000AF7860144A154BD31A7B616E
:1035E4007B693B61134B1B68002B02D1114B124AC0
:1035F4001A60104B1A687B6813443A699A4207D2DE
:1036040004F0A2FD03460C221A604FF0FF3309E0D8
:10361400084B1B68FB60074B1A687B681344054A18
:103624001360FB6818461837BD4680BD00000120B2
:103634000004000068030020C006002080B400AF2E
:1036440000BFBD4680BC704780B596B000AF07F19F
:10365400480300221A605A609A60DA6007F1400356
:1036640000221A605A6007F1240300221A605A608B
:103674009A60DA601A615A619A613B1D2022002126
:10368400184604F08BFD504B504A1A604E4B0022F2
:103694005A604D4B00229A604B4B40F60F62DA6041
:1036A400494B00221A61484B00225A61464B802242
:1036B4009A61454802F03EFC0346002B01D0FFF717
:1036C40011FF4FF48053BB6407F1480319463E4889
:1036D40003F0A8FC0346002B01D0FFF703FF3A4890
:1036E40002F08EFD0346002B01D0FFF7FBFE002302
:1036F4003B6400237B6407F140031946324804F01D
:1037040075FB0346002B01D0FFF7ECFE60237B62C0
:103714000023BB620023FB6200233B6300237B6323
:103724000023BB630023FB6307F124030022194633
:10373400254803F0D5FA0346002B01D0FFF7D2FE4B
:1037440007F12403042219461F4803F0C9FA03466B
:10375400002B01D0FFF7C6FE07F124030822194607
:10376400194803F0BDFA0346002B01D0FFF7BAFE57
:1037740007F124030C221946134803F0B1FA034657
:10378400002B01D0FFF7AEFE00237B600023BB605B
:103794000023FB6000233B6100237B614FF4005353
:1037A400BB6100233B623B1D1946074804F0EEFB56
:1037B4000346002B01D0FFF795FE034800F0B2FB4F
:1037C40000BF5837BD4680BD18060020002C0140BC
:1037D40080B58CB000AF07F10C03242200211846F9
:1037E40004F0DCFC3B1D00221A605A60214B4FF0B0
:1037F40080421A601F4B00225A601E4B00229A60BE
:103804001C4B4FF6FF72DA601A4B00221A61194BF7
:1038140000229A610323FB6000233B6101237B6147
:103824000023BB610023FB6100233B6201237B6215
:103834000023BB620023FB6207F10C0319460D4809
:1038440002F0E4FE0346002B01D0FFF74BFE0023F9
:103854007B600023BB603B1D1946064804F0C6FA92
:103864000346002B01D0FFF73DFE00BF3037BD46B5
:1038740080BD00BF6006002080B58CB000AF07F1AA
:103884000C0324220021184604F088FC3B1D00226E
:103894001A605A60204B214A1A601F4B00225A605A
:1038A4001D4B00229A601C4B4FF6FF72DA601A4BD4
:1038B40000221A61184B00229A610323FB60002343
:1038C4003B6101237B610023BB610023FB61002377
:1038D4003B6201237B620023BB620023FB6207F18E
:1038E4000C0319460C4802F091FE0346002B01D04C
:1038F400FFF7F8FD00237B600023BB603B1D1946E6
:10390400054804F073FA0346002B01D0FFF7EAFDE3
:1039140000BF3037BD4680BD88050020000400404C
:1039240080B58CB000AF07F10C03242200211846A7
:1039340004F034FC3B1D00221A605A60204B214ADB
:103944001A601F4B00225A601D4B00229A601C4BC8
:103954004FF6FF72DA601A4B00221A61184B0022EC
:103964009A610323FB6000233B6101237B610023F5
:10397400BB610023FB6100233B6201237B620023C4
:10398400BB620023FB6207F10C0319460C4802F0EA
:103994003DFE0346002B01D0FFF7A4FD00237B600E
:1039A4000023BB603B1D1946054804F01FFA03467B
:1039B400002B01D0FFF796FD00BF3037BD4680BD18
:1039C400F80400200008004080B58CB000AF07F177
:1039D4000C0324220021184604F0E0FB3B1D0022C6
:1039E4001A605A60204B214A1A601F4B00225A6009
:1039F4001D4B00229A601C4B4FF6FF72DA601A4B83
:103A040000221A61184B00229A610323FB600023F1
:103A14003B6101237B610023BB610023FB61002325
:103A24003B6201237B620023BB620023FB6207F13C
:103A34000C0319460C4802F0E9FD0346002B01D0A3
:103A4400FFF750FD00237B600023BB603B1D19463C
:103A5400054804F0CBF90346002B01D0FFF742FDE3
:103A640000BF3037BD4680BD40050020000C00403B
:103A740080B582B000AF3B4600221A605A60154BF5
:103A8400154A1A60134B41F61F425A60114B00222B
:103A94009A60104B6322DA600E4B00229A610D4843
:103AA40002F048FA0346002B01D0FFF71BFD002368
:103AB4003B6000237B603B461946064804F096F9B8
:103AC4000346002B01D0FFF70DFD00BF0837BD46AC
:103AD40080BD00BFD00500200010004080B596B026
:103AE40000AF07F1480300221A605A609A60DA6056
:103AF40007F1400300221A605A6007F124030022F0
:103B04001A605A609A60DA601A615A619A613B1DC0
:103B140020220021184604F041FB504B504A1A6001
:103B24004E4B00225A604D4B00229A604B4B40F69C
:103B34000F62DA60494B00221A61484B00225A6135
:103B4400464B80229A61454802F0F4F90346002B63
:103B540001D0FFF7C7FC4FF48053BB6407F148035F
:103B640019463E4803F05EFA0346002B01D0FFF7E6
:103B7400B9FC3A4802F044FB0346002B01D0FFF79E
:103B8400B1FC00233B6400237B6407F14003194626
:103B9400324804F02BF90346002B01D0FFF7A2FCB6
:103BA40060237B620023BB620023FB6200233B6330
:103BB40000237B630023BB630023FB6307F124031F
:103BC40000221946254803F08BF80346002B01D048
:103BD400FFF788FC07F12403042219461F4803F069
:103BE4007FF80346002B01D0FFF77CFC07F1240388
:103BF40008221946194803F073F80346002B01D034
:103C0400FFF770FC07F124030C221946134803F054
:103C140067F80346002B01D0FFF764FC00237B60A8
:103C24000023BB600023FB6000233B6100237B6116
:103C34004FF40053BB6100233B623B1D1946074808
:103C440004F0A4F90346002B01D0FFF74BFC034812
:103C540000F068F900BF5837BD4680BDB0040020AD
:103C64000034014080B586B000AF78607B681B6883
:103C74001F4A93420CD11F4B9B691E4A43F40063B5
:103C840093611C4B9B6903F400637B617B692AE0AD
:103C94007B681B68184A934214D1164BDB69154A9A
:103CA40043F01003D361134BDB6903F010033B6152
:103CB4003B6902220221362000F036FB362000F058
:103CC4005FFB10E07B681B680C4A93420BD1094BE5
:103CD4009B69084A43F400539361064B9B6903F4C0
:103CE4000053FB60FB6800BF1837BD4680BD00BFB2
:103CF400002C01400010024000100040003401403C
:103D040080B592B000AF786007F12C0300221A60EE
:103D14005A609A60DA607B681B68B3F1804F4FD1B8
:103D2400784BDB69774A43F00103D361754BDB6958
:103D340003F00103BB62BB6A724B9B69714A43F097
:103D4400040393616F4B9B6903F004037B627B6AFA
:103D54006C4B9B696B4A43F008039361694B9B6905
:103D640003F008033B623B6A4FF40043FB62002309
:103D74003B6300237B6307F12C031946624800F080
:103D840023FB0823FB6200233B6300237B6307F1CF
:103D94002C0319465D4800F017FB5D4B5B68FB6321
:103DA400FB6B23F44073FB63FB6B43F0E063FB6347
:103DB400FB6B43F48073FB63554AFB6B53609DE0DC
:103DC4007B681B68534A934236D14E4BDB694D4A9C
:103DD40043F00203D3614B4BDB6903F00203FB6145
:103DE400FB69484B9B69474A43F008039361454B81
:103DF4009B6903F00803BB61BB693023FB620023AA
:103E04003B6300237B6307F12C0319463F4800F012
:103E1400DBFA3F4B5B683B643B6C23F440633B64DD
:103E24003B6C43F0E0633B643B6C43F400633B64F2
:103E3400374A3B6C536061E07B681B68364A9342A7
:103E440033D1304BDB692F4A43F00403D3612D4B4C
:103E5400DB6903F004037B617B692A4B9B69294A74
:103E640043F020039361274B9B6903F020033B61DC
:103E74003B694FF44053FB6200233B6300237B63A5
:103E840007F12C031946254800F09EFA204B5B6885
:103E94007B647B6C43F0E0637B647B6C43F4805312
:103EA4007B641B4A7B6C536028E07B681B681C4A5C
:103EB400934223D1134BDB69124A43F00803D361C5
:103EC400104BDB6903F00803FB60FB680D4B9B6937
:103ED4000C4A43F0040393610A4B9B6903F0040307
:103EE400BB60BB680323FB6200233B6300237B634B
:103EF40007F12C031946044800F066FA00BF48375E
:103F0400BD4680BD0010024000080140000C014085
:103F1400000001400004004000080040001401407B
:103F2400000C004080B58AB000AF786007F114033C
:103F340000221A605A609A60DA607B681B68284A1B
:103F440093422BD1274B9B69264A43F0400393614C
:103F5400244B9B6903F040033B613B694FF4D4431A
:103F64007B610223BB6102233B6207F11403194600
:103F74001D4800F029FA1D4B5B687B627B6A23F0C5
:103F8400C0037B627B6A43F0E0637B627B6A43F03D
:103F9400C0037B62154A7B6A53601DE07B681B6823
:103FA400134A934218D10F4B9B690E4A43F01003F6
:103FB40093610C4B9B6903F01003FB60FB684FF4A7
:103FC40070737B610223BB6102233B6207F114031C
:103FD4001946084800F0F8F900BF2837BD4680BDEF
:103FE400002C014000100240001801400000014074
:103FF4000034014000100140FFF720FB0B480C493E
:104004000C4A002302E0D458C4500433C4188C4230
:10401400F9D3094A094C002301E013600432A24297
:10402400FBD304F097F8FFF7FBF97047000000207A
:10403400BC00002090930008BC000020BC060020B7
:10404400FEE7000080B500AF084B1B68074A43F049
:1040540010031360032000F047F9032000F008F870
:10406400FFF750FA0023184680BD00BF002002402D
:1040740080B582B000AF7860124B1A68124B1B787F
:1040840019464FF47A73B3FBF1F3B2FBF3F318461A
:1040940000F08EF90346002B01D001230EE07B686B
:1040A4000F2B0AD8002279684FF0FF3000F03CF95A
:1040B400064A7B681360002300E001231846083792
:1040C400BD4680BD4C00002054000020500000205C
:1040D40080B400AF054B1B781A46054B1B6813448C
:1040E400034A136000BFBD4680BC704754000020E3
:1040F400A806002080B400AF024B1B681846BD46DA
:1041040080BC7047A806002080B584B000AF7860FA
:10411400FFF7F0FFB8607B68FB60FB68B3F1FF3F1B
:1041240005D00A4B1B781A46FB681344FB6000BF9A
:10413400FFF7E0FF0246BB68D31AFA689A42F7D841
:1041440000BF00BF1037BD4680BD00BF5400002033
:1041540080B485B000AF78607B6803F00703FB6030
:104164000C4BDB68BB60BA684FF6FF031340BB60BF
:10417400FB681A02BB68134343F0BF6343F4003384
:10418400BB60044ABB68D36000BF1437BD4680BC23
:10419400704700BF00ED00E080B400AF044BDB6863
:1041A4001B0A03F007031846BD4680BC704700BFD6
:1041B40000ED00E080B483B000AF0346FB7197F9D3
:1041C4000730002B0BDBFB7903F01F02064997F93C
:1041D40007305B09012000FA02F241F8232000BFF6
:1041E4000C37BD4680BC704700E100E080B483B06A
:1041F40000AF03463960FB7197F90730002B0ADBE7
:104204003B68DAB20C4997F907301201D2B20B4479
:1042140083F800230AE03B68DAB20849FB7903F02B
:104224000F03043B1201D2B20B441A7600BF0C37C1
:10423400BD4680BC704700BF00E100E000ED00E037
:1042440080B489B000AFF860B9607A60FB6803F0AD
:104254000703FB61FB69C3F10703042B28BF042395
:10426400BB61FB690433062B02D9FB69033B00E005
:1042740000237B614FF0FF32BB6902FA03F3DA4398
:10428400BB681A407B699A404FF0FF317B6901FAA1
:1042940003F3D9437B680B40134318462437BD46C8
:1042A40080BC704780B582B000AF78607B68013B0A
:1042B400B3F1807F01D301230FE00A4A7B68013BFD
:1042C40053600F214FF0FF30FFF790FF054B0022A2
:1042D4009A60044B07221A60002318460837BD462B
:1042E40080BD00BF10E000E080B582B000AF786010
:1042F4007B68072B0FD07B68062B0CD07B68052BC3
:1043040009D07B68042B06D07B68032B03D0912152
:104314000448FFF7ECF87868FFF71AFF00BF083786
:10432400BD4680BD608A000880B586B000AF0346F4
:10433400B9607A60FB7300237B617B680F2B03D920
:10434400A9210E48FFF7D3F8BB680F2B03D9AA2184
:104354000A48FFF7CCF8FFF71FFF78617A68B9685D
:104364007869FFF76DFF024697F90F30114618463A
:10437400FFF73CFF00BF1837BD4680BD608A0008C8
:1043840080B582B000AF0346FB7197F90730002B6C
:1043940003DABD210548FFF7AAF897F90730184654
:1043A400FFF708FF00BF0837BD4680BD608A0008DC
:1043B40080B582B000AF78607868FFF773FF03467A
:1043C40018460837BD4680BD80B58AB000AF786016
:1043D400396000237B6200233B627B68A94A9342D5
:1043E4001BD07B68A84A934217D07B68A74A9342A4
:1043F40013D07B68A64A93420FD07B68A54A9342A8
:104404000BD07B68A44A934207D07B68A34A9342AB
:1044140003D0BD21A248FFF76AF83B681B689BB232
:10442400002B05D03B681B681B0C1B04002B03D01E
:10443400BE219B48FFF75BF83B685B68002B00F0EC
:1044440035823B685B68012B00F030823B685B6817
:10445400112B00F02B823B685B68022B00F0268254
:104464003B685B68122B00F021823B685B688D4AD5
:10447400934200F01B823B685B688B4A934200F0D6
:1044840015823B685B68894A934200F00F823B685F
:104494005B68874A934200F009823B685B68854AFF
:1044A400934200F003823B685B68834A934200F0C6
:1044B400FD813B685B68032B00F0F881BF217848DD
:1044C400FFF715F8F2E101227B6A02FA03F3FB61BC
:1044D4003B681B68FA691340BB61BA69FB699A427D
:1044E40040F0E1817B68674A93421BD07B68664A4F
:1044F400934217D07B68654A934213D07B68644A21
:1045040093420FD07B68634A93420BD07B68624A24
:10451400934207D07B68614A934203D0CD2160481F
:10452400FEF7E5FF3B685B68634A934200F0C68090
:10453400614A934200F2EC805C4A934200F0BE80F0
:104544005A4A934200F2E4805A4A934200F0B680F9
:10455400584A934200F2DC80534A934200F0AE8002
:10456400514A934200F2D480514A934200F0A6800B
:104574004F4A934200F2CC80122B2BD8122B00F21C
:10458400C78001A252F823F0C1460008E1450008A3
:10459400334600080F470008154700081547000870
:1045A4001547000815470008154700081547000877
:1045B4001547000815470008154700081547000867
:1045C4001547000815470008154700080946000864
:1045D4005D460008334A934270D099E03B68DB683B
:1045E400022B0BD03B68DB68012B07D03B68DB68F0
:1045F400032B03D0D5212A48FEF779FF3B68DB68FB
:104604003B6286E03B68DB68022B0BD03B68DB68CF
:10461400012B07D03B68DB68032B03D0DC21204847
:10462400FEF765FF3B68DB6804333B6271E03B687F
:10463400DB68022B0BD03B68DB68012B07D03B689F
:10464400DB68032B03D0E3211548FEF750FF3B68DA
:10465400DB6808333B625CE03B68DB68022B0BD011
:104664003B68DB68012B07D03B68DB68032B03D076
:10467400EA210B48FEF73BFF3B68DB680C333B62E7
:1046840047E000BF00080140000C01400010014059
:104694000014014000180140001C014000200140AA
:1046A4009C8A000800001110000021100000311045
:1046B4000000121000002210000032103B689B68BA
:1046C400002B0BD03B689B68012B07D03B689B6891
:1046D400022B03D0F7217C48FEF709FF3B689B6857
:1046E400002B02D104233B6213E03B689B68012B3F
:1046F40005D108233B627B68FA691A6109E0082343
:104704003B627B68FA695A6103E000233B6200E084
:1047140000BFBB69FF2B01D87B6801E07B680433D1
:104724007B61BB69FF2B02D87B6A9B0002E07B6A3A
:10473400083B9B003B617B691A680F213B6901FAC6
:1047440003F3DB431A40396A3B6901FA03F31A4362
:104754007B691A603B685B6803F08053002B00F0B0
:10476400A2805A4B9B69594A43F001039361574B0A
:104774009B6903F00103BB60BB68554A7B6A9B08D5
:10478400023352F82330FB607B6A03F003039B007F
:104794000F2202FA03F3DB43FA681340FB607B68E1
:1047A4004C4A93421FD07B684B4A934219D07B6892
:1047B4004A4A934213D07B68494A93420DD07B689E
:1047C400484A934207D07B68474A934201D1052364
:1047D4000AE0062308E0042306E0032304E002239E
:1047E40002E0012300E000237A6A02F0030292004F
:1047F4009340FA681343FB6035497B6A9B08023394
:10480400FA6841F823203B685B6803F48013002BAB
:1048140006D0364B9A683549BB6913438B6006E072
:10482400324B9A68BB69DB43304913408B603B6869
:104834005B6803F40013002B06D02C4BDA682B4979
:10484400BB691343CB6006E0284BDA68BB69DB43E2
:1048540026491340CB603B685B6803F40033002BAC
:1048640006D0224B5A682149BB6913434B6006E0CA
:104874001E4B5A68BB69DB431C4913404B603B68C1
:104884005B6803F48033002B06D0184B1A68174971
:10489400BB6913430B6006E0144B1A68BB69DB4326
:1048A400124913400B607B6A01337B623B681A68D0
:1048B4007B6A22FA03F3002B7FF405AE00BF00BF2E
:1048C4002837BD4680BD00BF9C8A00080010024006
:1048D4000000014000080140000C014000100140AC
:1048E4000014014000180140001C01400004014074
:1048F40080B584B000AF78600B467B807B88002B4A
:1049040004D07B881B0C1B04002B04D04FF4DA71F9
:104914000948FEF7ECFD7B689A687B881340002BFE
:1049240002D00123FB7301E00023FB73FB7B1846D9
:104934001037BD4680BD00BF9C8A000880B582B098
:1049440000AF78600B467B8013467B707B88002B1E
:1049540004D07B881B0C1B04002B04D04FF4EA7199
:104964000E48FEF7C4FD7B78002B07D07B78012B23
:1049740004D040F2D5110948FEF7B9FD7B78002B2D
:1049840003D07A887B681A6103E07B881A047B6809
:104994001A6100BF0837BD4680BD00BF9C8A00086D
:1049A40080B584B000AF78607B68002B01D101230F
:1049B400B7E17B681B68A64A934209D07B681B68F1
:1049C400A44A934204D040F2DB11A348FEF78FFDC2
:1049D4007B685B68002B04D07B685B689F4A9342CA
:1049E40004D94FF4EE719C48FEF781FD7B689B6807
:1049F400002B09D07B689B68B3F5804F04D040F24C
:104A0400DD119548FEF773FD7B68DB6823F47F7343
:104A140023F00303002B04D04FF4EF718E48FEF70C
:104A240066FD7B681B69B3F5804F09D07B681B6901
:104A3400B3F5404F04D040F2DF118748FEF757FD2D
:104A44007B685B69002B08D07B685B69012B04D011
:104A54004FF4F0718048FEF74AFD7B689B6923F0B0
:104A6400FE03002B04D040F2E1117B48FEF73FFD2A
:104A74007B68DB69002B08D07B68DB69402B04D0A2
:104A84004FF4F1717448FEF732FD7B681B6A002B0A
:104A940008D07B681B6A802B04D040F2E3116E4877
:104AA400FEF725FD7B6893F83D30DBB2002B06D181
:104AB4007B68002283F83C207868FEF773FC7B68EF
:104AC400242283F83D207B681B681A687B681B6876
:104AD40022F001021A607B681B681A687B681B68F5
:104AE40042F400421A607B681B681A687B681B6882
:104AF40022F400421A6001F0EBF9F8607B685B680D
:104B0400574A934207D8FB68564A934294BF0123FD
:104B14000023DBB206E0FB68534A934294BF0123AF
:104B24000023DBB2002B01D00123FAE0FB684F4ADB
:104B3400A2FB03239B0CBB607B681B685B6823F0B0
:104B44003F017B681B68BA680A435A607B681B682C
:104B54001B6A23F03F017B685B68414A934202D899
:104B6400BB68013309E0BB684FF4967202FB03F3A0
:104B74003F4AA2FB03239B0901337A6812680B4363
:104B840013627B681B68DB6923F44F4222F0FF0247
:104B94007B685B6832498B4219D8FB68591E7B6875
:104BA4005B685B00B1FBF3F3591C40F6FC730B40EC
:104BB400002B0AD0FB68591E7B685B685B00B1FB65
:104BC400F3F30133C3F30B0364E0042362E07B6873
:104BD4009B68002B11D1FB68581E7B6859680B46F3
:104BE4005B000B44B0FBF3F30133C3F30B03002B63
:104BF4000CBF01230023DBB212E0FB68581E7B6864
:104C040059680B469B000B4499000B44B0FBF3F32B
:104C14000133C3F30B03002B0CBF01230023DBB2CE
:104C2400002B01D0012335E07B689B68002B21D148
:104C3400FB68581E7B6859680B465B000B44B0FB4D
:104C4400F3F30133C3F30B0343F4004322E000BF47
:104C54000054004000580040D88A0008801A06001A
:104C6400A08601007F841E00FF083D0083DE1B43F5
:104C7400D34D6210FB68581E7B6859680B469B0035
:104C84000B4499000B44B0FBF3F30133C3F30B0360
:104C940043F44043796809681343CB617B681B681C
:104CA4001B6823F0C0017B68DA697B681B6A1A43BE
:104CB4007B681B680A431A607B681B689B6823F443
:104CC400034323F0FF037A6811697A68D2681143B9
:104CD4007A6812680B4393607B681B68DB6823F077
:104CE400FF017B685A697B689B691A437B681B6870
:104CF4000A43DA607B681B681A687B681B6842F0A9
:104D040001021A607B6800221A647B68202283F8FF
:104D14003D207B6800221A637B68002283F83E20D2
:104D2400002318461037BD4680BD00BF80B588B04B
:104D340002AFF860084611461A4603467B810B46CB
:104D44003B811346FB80FFF7D5F97861FB88012B83
:104D540007D0FB88102B04D040F606217348FEF7D9
:104D6400C6FBFB6893F83D30DBB2202B40F0D980C2
:104D74007B690093192301226D49F86800F072F9E8
:104D84000346002B01D00223CCE0FB6893F83C30AF
:104D9400012B01D10223C5E0FB68012283F83C20EA
:104DA400FB681B681B6803F00103012B07D0FB6839
:104DB4001B681A68FB681B6842F001021A60FB68F2
:104DC4001B681A68FB681B6822F400621A60FB689F
:104DD400212283F83D20FB68402283F83E20FB68B3
:104DE40000221A64FB683A6A5A62FB68BA8C5A85D4
:104DF400FB685B8D9AB2FB681A85FB684D4ADA62E0
:104E0400F8883A8979897B690193BB6A00930346E0
:104E1400F86800F091F80346002B52D0012381E09A
:104E24007A69B96AF86800F037FA0346002B0DD0A6
:104E3400FB681B6C042B07D1FB681B681A68FB68B2
:104E44001B6842F400721A6001236BE0FB685B6A22
:104E54001A78FB681B681A61FB685B6A5A1CFB685A
:104E64005A62FB681B8D013B9AB2FB681A85FB688A
:104E74005B8D9BB2013B9AB2FB685A85FB681B6849
:104E84005B6903F00403042B1BD1FB681B8D002B0F
:104E940017D0FB685B6A1A78FB681B681A61FB68A9
:104EA4005B6A5A1CFB685A62FB681B8D013B9AB211
:104EB400FB681A85FB685B8D9BB2013B9AB2FB6869
:104EC4005A85FB681B8D002BAAD17A69B96AF868E8
:104ED40000F02AFA0346002B0DD0FB681B6C042B50
:104EE40007D1FB681B681A68FB681B6842F40072F0
:104EF4001A60012316E0FB681B681A68FB681B68CC
:104F040042F400721A60FB68202283F83D20FB689B
:104F1400002283F83E20FB68002283F83C20002313
:104F240000E0022318461837BD4680BDD88A000821
:104F3400020010000000FFFF80B588B002AFF860E7
:104F4400084611461A4603467B810B463B811346AD
:104F5400FB80FB681B681A68FB681B6842F480725C
:104F64001A607B6A00933B6A00224FF00111F868D3
:104F740000F078F80346002B0DD0FB681B681B6813
:104F840003F48073B3F5807F03D1FB684FF40072A0
:104F94001A6403235FE07B89DBB21A46FB681B6853
:104FA40002F0FE021A617B6A3A6A2D49F86800F041
:104FB400D3F80346002B01D001234CE000237B618E
:104FC400FB681B685B697B61FB681B689B697B6191
:104FD4007B697A6A396AF86800F05EF90346002B47
:104FE4000DD0FB681B6C042B07D1FB681B681A6887
:104FF400FB681B6842F400721A6001232BE0FB88F3
:10500400012B05D13B89DAB2FB681B681A6121E0E8
:105014003B891B0A9BB2DAB2FB681B681A617A6A85
:10502400396AF86800F038F90346002B0DD0FB68A4
:105034001B6C042B07D1FB681B681A68FB681B6890
:1050440042F400721A60012305E03B89DAB2FB687E
:105054001B681A61002318461837BD4680BD00BF7F
:105064000200010080B584B000AFF860B9603B6015
:105074001346FB7148E03B68B3F1FF3F44D0FFF7B0
:1050840039F80246BB69D31A3A689A4202D33B689C
:10509400002B39D1BB681B0CDBB2012B0DD1FB6893
:1050A4001B685B69DA43BB6813409BB2002B0CBFDF
:1050B40001230023DBB21A460CE0FB681B689B69E2
:1050C400DA43BB6813409BB2002B0CBF01230023BF
:1050D400DBB21A46FB799A4216D1FB6800221A63A6
:1050E400FB68202283F83D20FB68002283F83E20E1
:1050F400FB681B6C43F02002FB681A64FB68002207
:1051040083F83C20012323E0BB681B0CDBB2012B9A
:105114000DD1FB681B685B69DA43BB6813409BB223
:10512400002B0CBF01230023DBB21A460CE0FB6802
:105134001B689B69DA43BB6813409BB2002B0CBF0E
:1051440001230023DBB21A46FB799A4293D0002351
:1051540018461037BD4680BD80B584B000AFF860F6
:10516400B9607A603B6071E0FB681B685B6903F4BB
:105174008063B3F5806F23D1FB681B681A68FB68F2
:105184001B6842F400721A60FB681B686FF480624B
:105194005A61FB6800221A63FB68202283F83D20D1
:1051A400FB68002283F83E20FB681B6C43F004027A
:1051B400FB681A64FB68002283F83C20012367E043
:1051C4007B68B3F1FF3F41D0FEF794FF02463B6892
:1051D400D31A7A689A4202D37B68002B36D1BB6813
:1051E4001B0CDBB2012B0CD1FB681B685B69DA4337
:1051F400BB6813409BB2002B14BF01230023DBB216
:105204000BE0FB681B689B69DA43BB6813409BB2E5
:10521400002B14BF01230023DBB2002B16D0FB6844
:1052240000221A63FB68202283F83D20FB680022D9
:1052340083F83E20FB681B6C43F02002FB681A6471
:10524400FB68002283F83C20012321E0BB681B0C8F
:10525400DBB2012B0CD1FB681B685B69DA43BB68CA
:1052640013409BB2002B14BF01230023DBB20BE0DD
:10527400FB681B689B69DA43BB6813409BB2002B35
:1052840014BF01230023DBB2002B7FF46DAF002396
:1052940018461037BD4680BD80B584B000AFF860B5
:1052A400B9607A6034E0F86800F086F80346002BB1
:1052B40001D0012334E0BB68B3F1FF3F28D0FEF7EF
:1052C40019FF02467B68D31ABA689A4202D3BB68B4
:1052D400002B1DD1FB681B685B6903F08003802BE6
:1052E40016D0FB6800221A63FB68202283F83D2055
:1052F400FB68002283F83E20FB681B6C43F020020D
:10530400FB681A64FB68002283F83C20012307E051
:10531400FB681B685B6903F08003802BC3D1002307
:1053240018461037BD4680BD80B584B000AFF86024
:10533400B9607A6034E0F86800F03EF80346002B68
:1053440001D0012334E0BB68B3F1FF3F28D0FEF75E
:10535400D1FE02467B68D31ABA689A4202D3BB686C
:10536400002B1DD1FB681B685B6903F00403042B4D
:1053740016D0FB6800221A63FB68202283F83D20C4
:10538400FB68002283F83E20FB681B6C43F020027C
:10539400FB681A64FB68002283F83C20012307E0C1
:1053A400FB681B685B6903F00403042BC3D100236F
:1053B40018461037BD4680BD80B483B000AF786016
:1053C4007B681B685B6903F48063B3F5806F1BD152
:1053D4007B681B686FF480625A617B6800221A63E1
:1053E4007B68202283F83D207B68002283F83E20DE
:1053F4007B681B6C43F004027B681A647B680022A0
:1054040083F83C20012300E0002318460C37BD46F6
:1054140080BC704780B586B000AF78607B68002B95
:1054240001D101235CE37B681B68002B1CD07B68E3
:105434001B6803F00103002B16D17B681B6803F083
:105444000203002B10D17B681B6803F00803002BB8
:105454000AD17B681B6803F00403002B04D140F2DB
:105464006511A548FEF743F87B681B6803F0010348
:10547400002B00F09A807B685B68002B0ED07B6861
:105484005B68B3F5803F09D07B685B68B3F5A02FF8
:1054940004D040F26B119848FEF729F8974B5B68EB
:1054A40003F00C03042B0CD0944B5B6803F00C0347
:1054B400082B12D1914B5B6803F48033B3F5803F22
:1054C4000BD18E4B1B6803F40033002B6CD07B682C
:1054D4005B68002B68D1012302E37B685B68B3F54A
:1054E400803F06D1854B1B68844A43F480331360A4
:1054F4002EE07B685B68002B0CD1804B1B687F4AD5
:1055040023F4803313607D4B1B687C4A23F480238F
:1055140013601DE07B685B68B3F5A02F0CD1774B5B
:105524001B68764A43F480231360744B1B68734AE8
:1055340043F4803313600BE0704B1B686F4A23F411
:10554400803313606D4B1B686C4A23F48023136013
:105554007B685B68002B13D0FEF7CCFD386108E054
:10556400FEF7C8FD02463B69D31A642B01D9032315
:10557400B6E2624B1B6803F40033002BF0D014E056
:10558400FEF7B8FD386108E0FEF7B4FD02463B695A
:10559400D31A642B01D90323A2E2584B1B6803F4EA
:1055A4000033002BF0D100E000BF7B681B6803F0E0
:1055B4000203002B79D07B681B69002B08D07B6821
:1055C4001B69012B04D040F29F114B48FDF78FFF5C
:1055D4007B685B691F2B04D94FF4D0714648FDF7F3
:1055E40086FF464B5B6803F00C03002B0BD0434B48
:1055F4005B6803F00C03082B1CD1404B5B6803F47D
:105604008033002B16D13D4B1B6803F00203002BA3
:1056140005D07B681B69012B01D0012360E2374B65
:105624001B6823F0F8027B685B69DB003349134392
:105634000B603AE07B681B69002B20D0304B0122C1
:105644001A60FEF757FD386108E0FEF753FD024685
:105654003B69D31A022B01D9032341E2274B1B6870
:1056640003F00203002BF0D0244B1B6823F0F80254
:105674007B685B69DB00214913430B6015E0204B19
:1056840000221A60FEF736FD386108E0FEF732FDAD
:1056940002463B69D31A022B01D9032320E2174B9C
:1056A4001B6803F00203002BF0D17B681B6803F036
:1056B4000803002B48D07B689B69002B08D07B68CB
:1056C4009B69012B04D04FF4F0710B48FDF70FFFD9
:1056D4007B689B69002B21D00A4B01221A60FEF7DC
:1056E40009FD386110E0FEF705FD02463B69D31A57
:1056F400022B09D90323F3E1108B000800100240A8
:105704000000424280044242674B5B6A03F002039A
:10571400002BE8D0012000F0EFFB15E0634B0022E2
:105724001A60FEF7E7FC386108E0FEF7E3FC024686
:105734003B69D31A022B01D90323D1E15A4B5B6A8B
:1057440003F00203002BF0D17B681B6803F0040311
:10575400002B00F0C0800023FB757B68DB68002B06
:105764000CD07B68DB68012B08D07B68DB68052BD9
:1057740004D040F20F214E48FDF7B9FE4A4BDB69D5
:1057840003F08053002B0DD1474BDB69464A43F0AD
:105794008053D361444BDB6903F08053BB60BB6827
:1057A4000123FB75434B1B6803F48073002B18D152
:1057B400404B1B683F4A43F480731360FEF79AFC26
:1057C400386108E0FEF796FC02463B69D31A642B65
:1057D40001D9032384E1374B1B6803F48073002B46
:1057E400F0D07B68DB68012B06D12F4B1B6A2E4A55
:1057F40043F0010313622DE07B68DB68002B0CD1BE
:10580400294B1B6A284A23F001031362264B1B6AA7
:10581400254A23F0040313621CE07B68DB68052B34
:105824000CD1214B1B6A204A43F0040313621E4B24
:105834001B6A1D4A43F0010313620BE01A4B1B6AF7
:10584400194A23F001031362174B1B6A164A23F00B
:10585400040313627B68DB68002B15D0FEF74AFC57
:1058640038610AE0FEF746FC02463B69D31A41F26E
:105874008832934201D9032332E10B4B1B6A03F0B4
:105884000203002BEED01DE0FEF734FC386113E078
:10589400FEF730FC02463B69D31A41F28832934248
:1058A4000AD903231CE100BF0010024080044242D5
:1058B400108B0008007000408B4B1B6A03F002033E
:1058C400002BE5D1FB7D012B05D1874BDB69864A93
:1058D40023F08053D3617B68DB69002B0CD07B6899
:1058E400DB69012B08D07B68DB69022B04D040F212
:1058F400AD217E48FDF7FBFD7B68DB69002B00F0E2
:10590400EE80794B5B6803F00C03082B00F0CE802B
:105914007B68DB69022B40F0B2807B681B6A002B3A
:1059240009D07B681B6AB3F5803F04D040F2B621EE
:105934006E48FDF7DCFD7B685B6A002B4AD07B6810
:105944005B6AB3F5802F45D07B685B6AB3F5002FA3
:1059540040D07B685B6AB3F5402F3BD07B685B6AC1
:10596400B3F5801F36D07B685B6AB3F5A01F31D0D6
:105974007B685B6AB3F5C01F2CD07B685B6AB3F5A8
:10598400E01F27D07B685B6AB3F5001F22D07B68D9
:105994005B6AB3F5101F1DD07B685B6AB3F5201FEB
:1059A40018D07B685B6AB3F5301F13D07B685B6AE1
:1059B400B3F5401F0ED07B685B6AB3F5501F09D066
:1059C4007B685B6AB3F5601F04D040F2B721474897
:1059D400FDF78DFD464B00221A60FEF78BFB386104
:1059E40008E0FEF787FB02463B69D31A022B01D974
:1059F400032375E03C4B1B6803F00073002BF0D1CC
:105A04007B681B6AB3F5803F16D17B689B68002BCB
:105A140009D07B689B68B3F5003F04D040F2CD21E8
:105A24003248FDF764FD304B5B6823F400327B6839
:105A34009B682D4913434B602B4B5B6823F4741212
:105A44007B68196A7B685B6A0B43274913434B6085
:105A5400274B01221A60FEF74DFB386108E0FEF780
:105A640049FB02463B69D31A022B01D9032337E0D1
:105A74001D4B1B6803F00073002BF0D02FE01C4B70
:105A840000221A60FEF736FB386108E0FEF732FBAD
:105A940002463B69D31A022B01D9032320E0124B9F
:105AA4001B6803F00073002BF0D118E07B68DB69FE
:105AB400012B01D1012313E00B4B5B68FB60FB68F6
:105AC40003F480327B681B6A9A4206D1FB6803F4B4
