:020000040800F2
:1000000000000120CD4900086D3D0008753D000845
:100010007D3D0008853D00088D3D00080000000082
:10002000000000000000000000000000953D0008F6
:10003000A13D000800000000AD3D0008B93D0008EA
:10004000154A0008154A0008154A0008154A000814
:10005000154A0008154A0008154A0008154A000804
:10006000154A0008154A0008154A0008154A0008F4
:10007000154A0008154A0008154A0008154A0008E4
:10008000154A0008154A0008154A0008154A0008D4
:10009000154A0008154A0008154A0008154A0008C4
:1000A000154A0008154A0008154A0008154A0008B4
:1000B000154A0008154A0008154A0008154A0008A4
:1000C000154A0008154A0008154A0008154A000894
:1000D000154A0008154A0008154A0008154A000884
:1000E000154A0008154A0008154A0008154A000874
:1000F000154A0008154A0008154A0008154A000864
:10010000154A0008154A0008154A0008154A000853
:10011000154A0008154A0008C53D0008D93D0008E9
:10012000154A0008154A0008154A0008154A000833
:1001300000000000000000000000000000000000BF
:1001400000000000000000000000000000000000AF
:10015000000000000000000000000000000000009F
:10016000000000000000000000000000000000008F
:10017000000000000000000000000000000000007F
:10018000000000000000000000000000000000006F
:10019000000000000000000000000000000000005F
:1001A000000000000000000000000000000000004F
:1001B000000000000000000000000000000000003F
:1001C000000000000000000000000000000000002F
:1001D000000000000000000000000000000000001F
:0401E0005FF8E0F1F3
:1001E80010B5054C237833B9044B13B10448AFF369
:1001F80000800123237010BD2002002000000000B1
:10020800ACD1000808B5034B1BB103490348AFF351
:10021800008008BD0000000024020020ACD10008C6
:10022800034613F8012B002AFBD1181A013870472E
:1002380081F0004102E000BF83F0004330B54FEA8F
:1002480041044FEA430594EA050F08BF90EA020FFC
:100258001FBF54EA000C55EA020C7FEA645C7FEA8F
:10026800655C00F0E2804FEA5454D4EB5555B8BFB2
:100278006D420CDD2C4480EA020281EA030382EA23
:10028800000083EA010180EA020281EA0303362DB5
:1002980088BF30BD11F0004F4FEA01314FF4801C88
:1002A8004CEA113102D0404261EB410113F0004F9A
:1002B8004FEA03334CEA133302D0524263EB430351
:1002C80094EA050F00F0A780A4F10104D5F1200EEF
:1002D8000DDB02FA0EFC22FA05F2801841F100014A
:1002E80003FA0EF2801843FA05F359410EE0A5F11E
:1002F80020050EF1200E012A03FA0EFC28BF4CF04F
:10030800020C43FA05F3C01851EBE37101F0004504
:1003180007D54FF0000EDCF1000C7EEB00006EEB11
:100328000101B1F5801F1BD3B1F5001F0CD349089B
:100338005FEA30004FEA3C0C04F101044FEA4452F2
:1003480012F5800F80F09A80BCF1004F08BF5FEA79
:10035800500C50F1000041EB045141EA050130BD59
:100368005FEA4C0C404141EB0101013C28BFB1F56B
:10037800801FE9D291F0000F04BF01460020B1FAB6
:1003880081F308BF2033A3F10B03B3F120020CDA89
:100398000C3208DD02F1140CC2F10C0201FA0CF067
:1003A80021FA02F10CE002F11402D8BFC2F1200CCC
:1003B80001FA02F120FA0CFCDCBF41EA0C01904082
:1003C800E41AA2BF01EB0451294330BD6FEA0404CB
:1003D8001F3C1CDA0C340EDC04F11404C4F12002B6
:1003E80020FA04F001FA02F340EA030021FA04F3C8
:1003F80045EA030130BDC4F10C04C4F1200220FA1F
:1004080002F001FA04F340EA0300294630BD21FA5C
:1004180004F0294630BD94F0000F83F4801306BF22
:1004280081F480110134013D4EE77FEA645C18BF16
:100438007FEA655C29D094EA050F08BF90EA020FAD
:1004480005D054EA000C04BF1946104630BD91EAA5
:10045800030F1EBF0021002030BD5FEA545C05D1A8
:100468004000494128BF41F0004130BD14F58004E7
:100478003CBF01F5801130BD01F0004545F0FE415B
:1004880041F470014FF0000030BD7FEA645C1ABF90
:10049800194610467FEA655C1CBF0B46024650EAC7
:1004A800013406BF52EA033591EA030F41F40021F3
:1004B80030BD00BF90F0000F04BF0021704730B579
:1004C8004FF4806404F132044FF000054FF000014E
:1004D80050E700BF90F0000F04BF0021704730B50F
:1004E8004FF4806404F1320410F0004548BF4042E4
:1004F8004FF000013EE700BF42004FEAE2014FEA39
:1005080031014FEA02701FBF12F07F4393F07F4F13
:1005180081F06051704732F07F4208BF704793F016
:100528007F4F04BF41F40021704730B54FF4607429
:1005380001F0004521F000411CE700BF50EA01022C
:1005480008BF704730B54FF000050AE050EA0102D5
:1005580008BF704730B511F0004502D5404261EB45
:1005680041014FF4806404F132045FEA915C3FF486
:10057800D8AE4FF003025FEADC0C18BF03325FEA23
:10058800DC0C18BF033202EBDC02C2F1200300FAD4
:1005980003FC20FA02F001FA03FE40EA0E0021FAF9
:1005A80002F11444BDE600BF70B54FF0FF0C4CF4E7
:1005B800E06C1CEA11541DBF1CEA135594EA0C0F99
:1005C80095EA0C0F00F0DEF82C4481EA030621EAD4
:1005D8004C5123EA4C5350EA013518BF52EA03350F
:1005E80041F4801143F4801338D0A0FB02CE4FF0C1
:1005F8000005E1FB02E506F00042E0FB03E54FF0F1
:100608000006E1FB03569CF0000F18BF4EF0010EE8
:10061800A4F1FF04B6F5007F64F5407404D25FEAE4
:100628004E0E6D4146EB060642EAC62141EA555197
:100638004FEAC52040EA5E504FEACE2EB4F1FD0CD9
:1006480088BFBCF5E06F1ED8BEF1004F08BF5FEA57
:10065800500E50F1000041EB045170BD06F0004609
:1006680046EA010140EA020081EA0301B4EB5C04B6
:10067800C2BFD4EB0C0541EA045170BD41F48011AE
:100688004FF0000E013C00F3AB8014F1360FDEBFD3
:10069800002001F0004170BDC4F10004203C35DAAF
:1006A8000C341BDC04F11404C4F1200500FA05F332
:1006B80020FA04F001FA05F240EA020001F00042D3
:1006C80021F0004110EBD37021FA04F642EB060149
:1006D8005EEA430E08BF20EAD37070BDC4F10C0473
:1006E800C4F1200500FA04F320FA05F001FA04F237
:1006F80040EA020001F0004110EBD37041F1000123
:100708005EEA430E08BF20EAD37070BDC4F120052D
:1007180000FA05F24EEA020E20FA04F301FA05F295
:1007280043EA020321FA04F001F0004121FA04F23D
:1007380020EA020000EBD3705EEA430E08BF20EA0D
:10074800D37070BD94F0000F0FD101F00046400047
:1007580041EB010111F4801F08BF013CF7D041EAC9
:10076800060195F0000F18BF704703F000465200CD
:1007780043EB030313F4801F08BF013DF7D043EA9E
:100788000603704794EA0C0F0CEA135518BF95EA54
:100798000C0F0CD050EA410618BF52EA4306D1D1DB
:1007A80081EA030101F000414FF0000070BD50EAFA
:1007B800410606BF1046194652EA430619D094EA84
:1007C8000C0F02D150EA013613D195EA0C0F05D16E
:1007D80052EA03361CBF104619460AD181EA0301C2
:1007E80001F0004141F0FE4141F470014FF000007A
:1007F80070BD41F0FE4141F4780170BD70B54FF015
:10080800FF0C4CF4E06C1CEA11541DBF1CEA135594
:1008180094EA0C0F95EA0C0F00F0A7F8A4EB050476
:1008280081EA030E52EA03354FEA013100F088806D
:100838004FEA03334FF0805545EA131343EA126336
:100848004FEA022245EA111545EA10654FEA0026EB
:100858000EF000419D4208BF964244F1FD0404F5A4
:10086800407402D25B084FEA3202B61A65EB030500
:100878005B084FEA32024FF480104FF4002CB6EBBD
:10088800020E75EB030E22BFB61A754640EA0C003D
:100898005B084FEA3202B6EB020E75EB030E22BF7D
:1008A800B61A754640EA5C005B084FEA3202B6EBBE
:1008B800020E75EB030E22BFB61A754640EA9C007D
:1008C8005B084FEA3202B6EB020E75EB030E22BF4D
:1008D800B61A754640EADC0055EA060E18D04FEA0B
:1008E800051545EA16754FEA06164FEAC30343EAAB
:1008F80052734FEAC2025FEA1C1CC0D111F4801F78
:100908000BD141EA00014FF000004FF0004CB6E770
:1009180011F4801F04BF01430020B4F1FD0C88BF0F
:10092800BCF5E06F3FF6AFAEB5EB030C04BFB6EB1A
:10093800020C5FEA500C50F1000041EB045170BD0D
:100948000EF0004E4EEA113114EB5C04C2BFD4EB3A
:100958000C0541EA045170BD41F480114FF0000EBE
:10096800013C90E645EA060E8DE60CEA135594EA3A
:100978000C0F08BF95EA0C0F3FF43BAF94EA0C0F3D
:100988000AD150EA01347FF434AF95EA0C0F7FF4B2
:1009980025AF104619462CE795EA0C0F06D152EA06
:1009A80003353FF4FDAE1046194622E750EA4106EA
:1009B80018BF52EA43067FF4C5AE50EA41047FF4FB
:1009C8000DAF52EA43057FF4EBAE12E74FF0FF3C60
:1009D80006E000BF4FF0010C02E000BF4FF0010C31
:1009E8004DF804CD4FEA410C7FEA6C5C4FEA430CAA
:1009F80018BF7FEA6C5C1BD001B050EA410C0CBFF9
:100A080052EA430C91EA030F02BF90EA020F00205A
:100A1800704710F1000F91EA030F58BF994208BFC1
:100A280090422CBFD8176FEAE37040F0010070477E
:100A38004FEA410C7FEA6C5C02D150EA013C07D1D5
:100A48004FEA430C7FEA6C5CD6D152EA033CD3D020
:100A58005DF8040B704700BF8446104662468C461A
:100A68001946634600E000BF01B5FFF7B7FF00284D
:100A780048BF10F1000F01BD4DF808EDFFF7F4FF76
:100A88000CBF012000205DF808FB00BF4DF808ED01
:100A9800FFF7EAFF34BF012000205DF808FB00BF24
:100AA8004DF808EDFFF7E0FF94BF012000205DF846
:100AB80008FB00BF4DF808EDFFF7CEFF94BF0120FB
:100AC80000205DF808FB00BF4DF808EDFFF7C4FFF4
:100AD80034BF012000205DF808FB00BF4FEA410C3D
:100AE8007FEA6C5C02D150EA013C0AD14FEA430C20
:100AF8007FEA6C5C02D152EA033C02D14FF000005D
:100B080070474FF0010070474FEA410212F500129A
:100B180015D211D56FF47873B3EB625212D94FEA3C
:100B2800C12343F0004343EA505311F0004F23FA26
:100B380002F018BF404270474FF00000704750EA7B
:100B4800013005D111F0004008BF6FF00040704738
:100B58004FF00000704700BF4A0011D212F5001292
:100B680011D20DD56FF47873B3EB62520ED44FEAFD
:100B7800C12343F0004343EA505323FA02F070477D
:100B88004FF00000704750EA013002D14FF0FF30BB
:100B980070474FF0000070474FEA4102B2F1E0435E
:100BA80024BFB3F5001CDCF1FE5C0DD901F0004C4C
:100BB8004FEAC0024CEA5070B2F1004F40EB83009C
:100BC80008BF20F00100704711F0804F21D113F1C8
:100BD8003872BCBF01F00040704741F480114FEA01
:100BE8005252C2F11802C2F1200C10FA0CF320FA8A
:100BF80002F018BF40F001004FEAC1234FEAD323A7
:100C080003FA0CFC40EA0C0023FA02F34FEA430310
:100C1800CCE77FEA625307D150EA01331EBF4FF099
:100C2800FE4040F44000704701F0004040F0FE40B4
:100C380040F40000704700BF80F0004002E000BFB1
:100C480081F0004142001FBF5FEA410392EA030FAF
:100C58007FEA226C7FEA236C6AD04FEA1262D2EBF9
:100C68001363C1BFD218414048404140B8BF5B42FE
:100C7800192B88BF704710F0004F40F4000020F097
:100C88007F4018BF404211F0004F41F4000121F0AD
:100C98007F4118BF494292EA030F3FD0A2F10102F7
:100CA80041FA03FC10EB0C00C3F1200301FA03F135
:100CB80000F0004302D5494260EB4000B0F5000F58
:100CC80013D3B0F1807F06D340084FEA310102F117
:100CD8000102FE2A51D2B1F1004F40EBC25008BFC9
:100CE80020F0010040EA03007047490040EB000093
:100CF800013A28BFB0F5000FEDD2B0FA80FCACF194
:100D0800080CB2EB0C0200FA0CF0AABF00EBC250C0
:100D180052421843BCBFD0401843704792F0000FAE
:100D280081F4000106BF80F400000132013BB5E701
:100D38004FEA41037FEA226C18BF7FEA236C21D077
:100D480092EA030F04D092F0000F08BF08467047DC
:100D580090EA010F1CBF0020704712F07F4F04D1AA
:100D6800400028BF40F00040704712F100723CBFBD
:100D780000F50000704700F0004343F0FE4040F4E7
:100D8800000070477FEA226216BF08467FEA2363A5
:100D98000146420206BF5FEA412390EA010F40F490
:100DA800800070474FF0000304E000BF10F00043DC
:100DB80048BF40425FEA000C08BF704743F09643C3
:100DC80001464FF000001CE050EA010208BF7047DE
:100DD8004FF000030AE000BF50EA010208BF704765
:100DE80011F0004302D5404261EB41015FEA010C7A
:100DF80002BF84460146002043F0B64308BFA3F172
:100E08008053A3F50003BCFA8CF2083AA3EBC25353
:100E180010DB01FA02FC634400FA02FCC2F1200272
:100E2800BCF1004F20FA02F243EB020008BF20F0A9
:100E38000100704702F1200201FA02FCC2F120020F
:100E480050EA4C0021FA02F243EB020008BF20EA04
:100E5800DC7070474FF0FF0C1CEAD0521EBF1CEA32
:100E6800D15392EA0C0F93EA0C0F6FD01A4480EA20
:100E7800010C400218BF5FEA41211ED04FF0006309
:100E880043EA501043EA5111A0FB01310CF0004035
:100E9800B1F5000F3EBF490041EAD3715B0040EA5B
:100EA800010062F17F02FD2A1DD8B3F1004F40EB2B
:100EB800C25008BF20F00100704790F0000F0CF0FE
:100EC800004C08BF49024CEA502040EA51207F3AC2
:100ED800C2BFD2F1FF0340EAC250704740F400009D
:100EE8004FF00003013A5DDC12F1190FDCBF00F08E
:100EF80000407047C2F10002410021FA02F1C2F13C
:100F0800200200FA02FC5FEA310040F1000053EAD7
:100F18004C0308BF20EADC70704792F0000F00F025
:100F2800004C02BF400010F4000F013AF9D040EA2B
:100F38000C0093F0000F01F0004C02BF490011F4BF
:100F4800000F013BF9D041EA0C018FE70CEAD153BD
:100F580092EA0C0F18BF93EA0C0F0AD030F0004C3D
:100F680018BF31F0004CD8D180EA010000F00040F1
:100F7800704790F0000F17BF90F0004F084691F0AF
:100F8800000F91F0004F14D092EA0C0F01D14202E9
:100F98000FD193EA0C0F03D14B0218BF084608D1B2
:100FA80080EA010000F0004040F0FE4040F40000FC
:100FB800704740F0FE4040F4400070474FF0FF0C8F
:100FC8001CEAD0521EBF1CEAD15392EA0C0F93EAD6
:100FD8000C0F69D0A2EB030280EA010C49024FEA28
:100FE800402037D04FF0805343EA111143EA1013E1
:100FF8000CF000408B4238BF5B0042F17D024FF499
:10100800000C8B4224BF5B1A40EA0C00B3EB510F73
:1010180024BFA3EB510340EA5C00B3EB910F24BF5C
:10102800A3EB910340EA9C00B3EBD10F24BFA3EBE1
:10103800D10340EADC001B0118BF5FEA1C1CE0D1A9
:10104800FD2A3FF650AF8B4240EBC25008BF20F05C
:10105800010070470CF0004C4CEA50207F32C2BFB0
:10106800D2F1FF0340EAC250704740F400004FF04D
:101078000003013A37E792F0000F00F0004C02BF7E
:10108800400010F4000F013AF9D040EA0C0093F048
:10109800000F01F0004C02BF490011F4000F013BA2
:1010A800F9D041EA0C0195E70CEAD15392EA0C0F0A
:1010B80008D142027FF47DAF93EA0C0F7FF470AF42
:1010C800084676E793EA0C0F04D14B023FF44CAF85
:1010D80008466EE730F0004C18BF31F0004CCAD11A
:1010E80030F000427FF45CAF31F000437FF43CAF56
:1010F8005FE700BF4FF0FF3C06E000BF4FF0010C78
:1011080002E000BF4FF0010C4DF804CD4FEA400259
:101118004FEA41037FEA226C18BF7FEA236C11D0A3
:1011280001B052EA530C18BF90EA010F58BFB2EB56
:10113800030088BFC81738BF6FEAE17018BF40F0D6
:10114800010070477FEA226C02D15FEA402C05D18A
:101158007FEA236CE4D15FEA412CE1D05DF8040B0F
:10116800704700BF844608466146FFE70FB5FFF7A2
:10117800C9FF002848BF10F1000F0FBD4DF808ED5A
:10118800FFF7F4FF0CBF012000205DF808FB00BF4B
:101198004DF808EDFFF7EAFF34BF012000205DF8A5
:1011A80008FB00BF4DF808EDFFF7E0FF94BF0120F2
:1011B80000205DF808FB00BF4DF808EDFFF7D2FFEF
:1011C80094BF012000205DF808FB00BF4DF808ED32
:1011D800FFF7C8FF34BF012000205DF808FB00BFFF
:1011E8004FEA4002B2F1FE4F0FD34FF09E03B3EB2C
:1011F80012620DD94FEA002343F0004310F0004F6C
:1012080023FA02F018BF404270474FF000007047C1
:1012180012F1610F01D1420205D110F0004008BF60
:101228006FF0004070474FF00000704738B500225B
:10123800002304460D46FFF729FC28B92046294615
:10124800BDE8384000F00AB8204605F1004100F03A
:1012580005F8404261EB410138BD00BFD0B500221E
:101268000B4B06460F46FFF79FF9FFF775FC044640
:10127800FFF720F90022074BFFF796F902460B46C5
:1012880030463946FEF7D8FFFFF766FC2146D0BD49
:101298000000F03D0000F04180B586B004AF034681
:1012A8000A46FB711346BB71FB799AB20A23029373
:1012B80001230193BB1D009301237821034804F007
:1012C8000BFA00BF0837BD4680BD00BFDC05002013
:1012D80080B500AF642003F0FDFBAE210020FFF7CE
:1012E800DBFFA6210020FFF7D7FFAE210020FFF784
:1012F800D3FFD5210020FFF7CFFF80210020FFF783
:10130800CBFFA8210020FFF7C7FF1F210020FFF710
:10131800C3FFD3210020FFF7BFFF00210020FFF704
:10132800BBFF40210020FFF7B7FF8D210020FFF70A
:10133800B3FF14210020FFF7AFFF20210020FFF7A3
:10134800ABFF02210020FFF7A7FFA1210020FFF734
:10135800A3FFC8210020FFF79FFFDA210020FFF735
:101368009BFF02210020FFF797FF81210020FFF754
:1013780093FFCF210020FFF78FFFD9210020FFF72F
:101388008BFFF1210020FFF787FFDB210020FFF70B
:1013980083FF40210020FFF77FFF2E210020FFF769
:1013A8007BFFA4210020FFF777FFA6210020FFF78D
:1013B80073FFAF210020FFF76FFF002000F046F811
:1013C80000F00EF8054B00221A80044B00225A80C8
:1013D800024B01225A7100BF80BD00BF3C040020AF
:1013E80080B582B000AF0023FB7125E0FB79503B4C
:1013F800DBB219460020FFF74FFF00210020FFF75E
:101408004BFF10210020FFF747FF0023BB710CE0C2
:10141800BA79FB79DB0113440B4AD35C19464020A7
:10142800FFF73AFFBB790133BB7197F90630002B00
:10143800EEDAFB790133FB71FB79072BD6D900BFB4
:1014480000BF0837BD4680BD3C02002080B582B091
:1014580000AF0346FB71FB79002B01D1002300E0AC
:10146800FF234FF400721946034808F0D2FA00BF70
:101478000837BD4680BD00BF3C02002080B483B061
:1014880000AF0346FB800B46BB801346FB70FB880E
:101498007F2B48D8BB881F2B45D8254B1B79002BA1
:1014A80006D0FB78002B0CBF01230023DBB2FB70B6
:1014B800FB78012B1AD1FA88BB88DB0898B203465F
:1014C800DB0113441B4AD35C5AB2BB8803F0070301
:1014D800012101FA03F35BB2134359B2FA880346B8
:1014E800DB011344C9B2134AD1541DE0FA88BB8802
:1014F800DB0898B20346DB0113440E4AD35C5AB2A8
:10150800BB8803F00703012101FA03F35BB2DB4355
:101518005BB2134059B2FA880346DB011344C9B2DF
:10152800044AD15400E000BF0C37BD4680BC704768
:101538003C0400203C02002080B483B000AF034686
:101548000A46FB801346BB80054AFB881380044A81
:10155800BB88538000BF0C37BD4680BC704700BFB6
:101568003C04002080B586B000AF03463960FB71AB
:101578001346BB71394B1B881A463B681B781344CA
:101588007F2B07DC354B5B881A463B685B78134436
:101598001F2B01DD00235DE000237B614BE03B68EE
:1015A8005A68FB79203B3968497801FB03F31946EF
:1015B8007B690B445B0013441B88FB6000233B6181
:1015C80030E0FA683B6902FA03F303F40043002BA6
:1015D80010D0224B1A883B699BB2134498B21F4B18
:1015E8005A887B699BB213449BB2BA791946FFF7B4
:1015F80045FF14E0194B1A883B699BB2134498B213
:10160800164B5A887B699BB2134499B2BB79002B5D
:101618000CBF01230023DBB21A46FFF72FFF3B69FB
:1016280001333B613B681B781A463B699342C8D338
:101638007B6901337B613B685B781A467B6993421F
:10164800ADD3064B1B883A68127813449AB2034B01
:101658001A80FB7918461837BD4680BD3C04002027
:1016680080B584B000AFF860B9601346FB7112E032
:10167800FB681B78FA79B9681846FFF773FF0346C9
:101688001A46FB681B789A4202D0FB681B7808E070
:10169800FB680133FB60FB681B78002BE8D1FB6813
:1016A8001B7818461037BD4680BD80B500AF0020B6
:1016B800FFF7CCFE00BF80BD80B500AFFFF790FEFE
:1016C80000BF80BD80B582B000AF78600846114683
:1016D8001A460346FB700B46BB7013467B707B783B
:1016E800002B01D0FFF7E1FFFB789BB2BA7892B2EA
:1016F80011461846FFF720FF012206497868FFF7D0
:10170800AFFF3B7C002B01D0FFF7D6FF00BF0837A7
:10171800BD4680BD0000002080B584B002AF78606F
:10172800084611461A460346FB700B46BB70134623
:101738007B70FB78002B12D0FB78032B0FD8FB783B
:101748001A46920013445B00DBB20A3BDAB2B9785E
:101758007B7800930B4600217868FFF7B3FF00BF42
:101768000837BD4680BD000080B500AF072000F0F7
:1017780027FB03461A469B4B1A60082000F020FB03
:1017880003461A46984B1A60052000F019FB0346D9
:101798001A46964B1A60062000F012FB03461A46BA
:1017A800934B1A6000F0D2FA03461A46914B1A601E
:1017B800914BB3F900301A469049914808F0C6F8A1
:1017C800904B1B681846FEF797FE02460B468E495B
:1017D8008E4808F0BBF80023002202218848FFF752
:1017E8009BFF0123002203218848FFF795FF7D4BCB
:1017F8001B68FF2B0CD17C4B1B68FF2B08D17B4B44
:101808001B68FF2B04D17A4B1B68FF2B00F0CD819E
:10181800744B1B68002B0CD1734B1B68002B08D131
:10182800724B1B68002B04D1714B1B68002B00F016
:10183800BE816C4B1B68C02B00F0BB816A4B1B68D8
:10184800C02B00F0B681694B1B68C02B00F0B1813A
:10185800674B1B68C02B00F0AC81634B1B687C2B6B
:1018680010DC624B1B687D2B0CDD604B1B68952BD5
:1018780008DC614BB3F900309BB21946012001F036
:10188800C9FA78E0584B1B68962B10DD574B1B683C
:101898007D2B0CDD554B1B68952B08DC564BB3F99B
:1018A80000309BB21946022001F0B4FA63E04F4BB6
:1018B8001B687C2B10DC4C4B1B687D2B0CDD4A4BCA
:1018C8001B68952B08DC4C4BB3F900309BB21946CA
:1018D800032001F09FFA4EE0444B1B68962B10DD65
:1018E800414B1B687D2B0CDD3F4B1B68952B08DC9F
:1018F800414BB3F900309BB21946042001F08AFA33
:1019080039E0394B1B687C2B03DC384B1B687C2B7C
:1019180007DD354B1B68962B0CDD344B1B687C2B85
:1019280008DC354BB3F900309BB21946052001F0AD
:1019380071FA20E02C4B1B687C2B03DC2B4B1B68BB
:10194800962B07DC284B1B68962B0CDD274B1B6856
:10195800962B08DD284BB3F900309BB219460620B8
:1019680001F058FA07E0234B1B68002B03D1002134
:10197800002001F04FFA1F4B1B68053B0B2B00F2B0
:10198800058101A252F823F0931A0008A51A00084D
:10199800B71A0008C91A0008191A0008691A0008B5
:1019A800C1190008431A0008DB1A0008671B000861
:1019B800E71A0008391B00080F4BB3F900309BB237
:1019C80064339BB21AB20C4B1A800B4BB3F900303C
:1019D800B3F57A7F40F3DC80074B4FF47A721A80B4
:1019E800D6E000BF44040020480400204C04002036
:1019F800500400205404002008000020C8D100082A
:101A08006004002058040020D8D100087404002085
:101A1800694BB3F900309BB2FA339BB21AB2664BEA
:101A28001A80654BB3F90030B3F57A7F40F3B28082
:101A3800614B4FF47A721A80ACE05F4BB3F9003017
:101A48009BB2643B9BB21AB25B4B1A805A4BB3F9F8
:101A58000030632B00F3A080574B64221A809BE070
:101A6800554BB3F900309BB2FA3B9BB21AB2524BBA
:101A78001A80514BB3F9003013F57A7F80F28E80CB
:101A88004D4B4FF618421A8088E04B4BB3F90030A3
:101A98009BB21946012001F0BDF982E0464BB3F92B
:101AA80000309BB21946042001F0B4F979E0424BAA
:101AB800B3F900309BB21946022001F0ABF970E08F
:101AC8003D4BB3F900309BB21946032001F0A2F94F
:101AD80067E001F0D7FE0346384A136061E0002250
:101AE8000421374803F00AFC00220821344803F097
:101AF80005FC00221021324803F000FC00220221DC
:101B0800304803F0FBFB002280212D4803F0F6FB50
:101B1800002204212B4803F0F1FB2B4B1B78002BF0
:101B28003ED0294B1B78013BDAB2274B1A7037E0BD
:101B3800264B1B780133DAB2244B1A70234B1B78DF
:101B4800062B02D9214B01221A700021002001F036
:101B580061F91E4B1B78184600F0B0FB21E01B4BC7
:101B68001B78013BDAB2194B1A70184B1B78002B03
:101B780002D1164B06221A700021002001F04AF902
:101B8800124B1B78184600F099FB0AE000BF08E0EA
:101B980000BF06E000BF04E000BF02E000BF00E0B5
:101BA80000BF142002F096FF04E000BF02E000BF6F
:101BB80000E000BF80BD00BF0800002058040020DE
:101BC80000180140002001405C0400200A000020A9
:101BD80080B584B000AF0346FB710123FB81254B20
:101BE80000225A700123FB813BE0FB899BB21A4615
:101BF800FB791340002B05D0012280211E4803F0F9
:101C08007DFB04E0002280211B4803F077FB0122C2
:101C18002021194803F072FB052000F005FE002280
:101C28002021154803F06AFB052000F0FDFD012284
:101C38002021114803F062FB40210F4803F03EFBCE
:101C48000346002B08D0FB899BB2DAB2094B5B78BC
:101C58001343DAB2074B5A70FB899BB25B009BB205
:101C6800FB81FB899BB2FF2BBFD900BF00BF103798
:101C7800BD4680BD8C0400200008014080B582B0BC
:101C880000AF0023FB710123BB80002210212C48E8
:101C980003F034FB2B4B1B781846FFF799FF294BB1
:101CA8005B781846FFF794FF0223FB713AE00123A3
:101CB800BB802EE001222021214803F01FFB0520D4
:101CC80000F0B2FD002220211D4803F017FB05207B
:101CD80000F0AAFD01222021194803F00FFB402142
:101CE800174803F0EBFA0346002B0DD0BB889BB2D4
:101CF800DAB2FB79DBB21946134B5B5CF979C9B2EE
:101D08001343DAB2104B5A54BB889BB25B009BB2A8
:101D1800BB80BB889BB2FF2BCCD9FB79DBB20133EC
:101D2800DBB2FB71FB79DBB2082BC0D90122102191
:101D3800034803F0E3FA00BF0837BD4680BD00BF83
:101D4800000801400C0000208C04002080B582B0FF
:101D580000AF00F045F8FFF791FF164B1B791B0207
:101D68001AB2144BDB781BB213431BB29AB2124B54
:101D78001A800023FB7114E00F4B1B881946FB796E
:101D88000E4A32F81330013B41FA03F303F0010322
:101D9800002B03D1FB790133DBB206E0FB79013379
:101DA800FB71FB790F2BE7D9002318460837BD468E
:101DB80080BD00BF8C040020880400201000002093
:101DC80080B483B000AF0346FB71FB79034AD35C50
:101DD80018460C37BD4680BC704700BF8C040020F5
:101DE80080B483B000AF0023FB7106E0FB79074A9B
:101DF8000021D154FB790133FB71FB79082BF5D90C
:101E080000BF00BF0C37BD4680BC70478C04002063
:101E180080B500AF002210210F4803F06FFA1020A0
:101E280000F002FD0120FFF7D3FE4220FFF7D0FEAD
:101E38000020FFF7CDFE0020FFF7CAFE0020FFF7C5
:101E4800C7FE01221021044803F058FA102000F0C0
:101E5800EBFC00BF80BD00BF0008014080B500AFAB
:101E680000221021154803F049FA102000F0DCFC8C
:101E78000120FFF7ADFE4320FFF7AAFE0020FFF781
:101E8800A7FE0120FFF7A4FE0020FFF7A1FE002017
:101E9800FFF79EFE0020FFF79BFE0020FFF798FE4D
:101EA8000020FFF795FE01221021044803F026FACE
:101EB800102000F0B9FC00BF80BD00BF0008014041
:101EC80080B500AF00221021134803F017FA012053
:101ED800FFF77EFE4420FFF77BFE0020FFF778FE29
:101EE8000120FFF775FE0320FFF772FE0020FFF7C1
:101EF8006FFE0020FFF76CFE0020FFF769FE002050
:101F0800FFF766FE01221021034803F0F7F91020BD
:101F180000F08AFC00BF80BD0008014080B500AF1A
:101F280000221021154803F0E9F9102000F07CFC8C
:101F38000120FFF74DFE4320FFF74AFE0020FFF780
:101F480047FE0020FFF744FE5A20FFF741FE5A20C3
:101F5800FFF73EFE5A20FFF73BFE5A20FFF738FEF8
:101F68005A20FFF735FE01221021044803F0C6F974
:101F7800102000F059FC00BF80BD00BF00080140E0
:101F880080B500AFFFF744FFFFF742FFFFF740FFC0
:101F9800FFF764FFFFF794FFFFF7C0FF00BF80BDA6
:101FA80080B584B000AF78600023FB730CE0FB7B46
:101FB8001946032000F07AFA7B689BB2184600F0B5
:101FC80071FCFB7B0133FB73FB7B062BEFD900BF56
:101FD80000BF1037BD4680BD80B584B000AF7860C3
:101FE8000023FB732AE0FA7B184BA3FB0213D11AD8
:101FF80049080B4499080B46DB005B1AD31ADBB27D
:102008001946012000F052FAFB7B5A1C104B83FB47
:10201800021313449910D317C91A0B46DB005B1A35
:10202800D11ACBB21946022000F040FA7B689BB265
:10203800184600F037FCFB7B0133FB73FB7B072B57
:10204800D1D900BF00BF1037BD4680BD25499224B5
:102058009324499280B584B000AF03463960FB7180
:10206800FB79002B35D10023FB732EE0FA7B354B2F
:10207800A3FB0213D11A49080B4499080B46DB004D
:102088005B1AD31ADBB21946022000F00FFA3B683C
:102098009BB2184600F006FCFA7B2A4BA3FB0213FE
:1020A800D11A49080B4499080B46DB005B1AD31A6E
:1020B800DBB21946012000F0F9F93B689BB21846DB
:1020C80000F0F0FBFB7B0133FB73FB7B062BCDD9C8
:1020D80034E00023BB732EE0BA7B1A4BA3FB021338
:1020E800D11A49080B4499080B46DB005B1AD31A2E
:1020F800DBB21946012000F0D9F93B689BB21846BB
:1021080000F0D0FBBA7B0F4BA3FB0213D11A49088E
:102118000B4499080B46DB005B1AD31ADBB219464D
:10212800022000F0C3F93B689BB2184600F0BAFBE6
:10213800BB7B0133BB73BB7B062BCDD900BF1037EC
:10214800BD4680BD2549922480B584B000AF0346C2
:102158003960FB71FB79002B53D10023FB734CE0F2
:10216800FA7B534BA3FB0213D11A49080B44990875
:102178000B46DB005B1AD31ADBB21946022000F0CB
:1021880095F9002204214B4803F0B8F800220821F1
:10219800484803F0B3F800221021464803F0AEF88F
:1021A8003B689BB2184600F07DFB002202214248A2
:1021B80003F0A4F8002280213E4803F09FF8002293
:1021C80004213D4803F09AF8FA7B394BA3FB02132C
:1021D800D11A49080B4499080B46DB005B1AD31A3D
:1021E800DBB21946012000F061F93B689BB2184642
:1021F80000F058FBFB7B0133FB73FB7B062BAFD94D
:1022080052E00023BB734CE0002202212A4803F06D
:1022180075F800228021274803F070F80022042175
:10222800254803F06BF8BA7B214BA3FB0213D11AA4
:1022380049080B4499080B46DB005B1AD31ADBB23A
:102248001946012000F032F93B689BB2184600F0AD
:1022580029FBBA7B164BA3FB0213D11A49080B447E
:1022680099080B46DB005B1AD31ADBB21946022029
:1022780000F01CF9002204210E4803F03FF8002268
:1022880008210C4803F03AF800221021094803F00D
:1022980035F83B689BB2184600F004FBBB7B013362
:1022A800BB73BB7B062BAFD900BF1037BD4680BDC3
:1022B80025499224001801400020014080B582B0D1
:1022C80000AF0346FB71FB79013B052B00F2E6806A
:1022D80001A252F823F000BFF92200083F230008AA
:1022E80085230008CD230008152400085D24000874
:1022F8004FF4C870FFF754FE00220421694802F029
:10230800FDFF00220821674802F0F8FF0022102193
:10231800644802F0F3FF00220221634802F0EEFF56
:10232800002280215F4802F0E9FF002204215E4874
:1023380002F0E4FFB2E04FF4AF70FFF74DFE002269
:102348000421584802F0DAFF00220821554802F01B
:10235800D5FF00221021534802F0D0FF00220221AD
:10236800514802F0CBFF002280214E4802F0C6FF00
:10237800002204214C4802F0C1FF8FE04FF4FA71AB
:102388000020FFF767FE00220421464802F0B6FF4E
:1023980000220821434802F0B1FF002210214148E1
:1023A80002F0ACFF002202213F4802F0A7FF002202
:1023B80080213C4802F0A2FF002204213A4802F0A2
:1023C8009DFF6BE04FF4FA710120FFF743FE0022F6
:1023D8000421344802F092FF00220821314802F01B
:1023E8008DFF002210212F4802F088FF00220221D1
:1023F8002D4802F083FF002280212A4802F07EFF48
:1024080000220421284802F079FF47E04FF4C87100
:102418000020FFF799FE00220421224802F06EFFF7
:10242800002208211F4802F069FF002210211D48E0
:1024380002F064FF002202211B4802F05FFF002225
:102448008021184802F05AFF00220421164802F0A1
:1024580055FF23E04FF4C8710120FFF775FE0022F5
:102468000421104802F04AFF002208210D4802F01A
:1024780045FF002210210B4802F040FF00220221F4
:10248800094802F03BFF00228021064802F036FF8F
:1024980000220421044802F031FF00BF00BF0837C2
:1024A800BD4680BD001801400020014080B584B0C1
:1024B80000AF03460A46FB711346BB71FB79FB73F9
:1024C800FB7B032B10D0032B17DC012B02D0022B34
:1024D80005D012E0BB79184600F036F82CE0BB793D
:1024E800184600F0D1F827E0BB79184600F02CF820
:1024F800BB79184600F0C8F81EE0002204211048F5
:1025080002F0FCFE002208210D4802F0F7FE00222E
:1025180010210B4802F0F2FE00220221094802F0C5
:10252800EDFE00228021064802F0E8FE0022042188
:10253800044802F0E3FE00BF00BF1037BD4680BD6F
:10254800001801400020014080B582B000AF03466A
:10255800FB71FB79062B00F2818001A252F823F06F
:1025680085250008A5250008C5250008E5250008DB
:102578000526000825260008452600080122042112
:10258800404802F0BBFE002208213E4802F0B6FE99
:10259800002210213B4802F0B1FE6FE00022042126
:1025A800384802F0ABFE01220821364802F0A6FEA8
:1025B80000221021334802F0A1FE5FE0002204212E
:1025C800304802F09BFE002208212E4802F096FEB9
:1025D800012210212B4802F091FE4FE00122042134
:1025E800284802F08BFE01220821264802F086FEC8
:1025F80000221021234802F081FE3FE0012204213D
:10260800204802F07BFE002208211E4802F076FED8
:10261800012210211B4802F071FE2FE00022042144
:10262800184802F06BFE01220821164802F066FEE7
:1026380001221021134802F061FE1FE0012204214B
:10264800104802F05BFE012208210E4802F056FEF7
:10265800012210210B4802F051FE0FE00022042154
:10266800084802F04BFE00220821064802F046FE08
:1026780000221021034802F041FE00BF00BF0837C6
:10268800BD4680BD0018014080B582B000AF03464A
:10269800FB71FB79062B00F2818001A252F823F02E
:1026A800C5260008E5260008052700082527000894
:1026B8004527000865270008852700080122022110
:1026C800404802F01BFE002280213F4802F016FE1F
:1026D800002204213B4802F011FE6FE00022022193
:1026E800384802F00BFE01228021374802F006FE2E
:1026F80000220421334802F001FE5FE0002202219B
:10270800304802F0FBFD002280212F4802F0F6FD40
:10271800012204212B4802F0F1FD4FE001220221A1
:10272800284802F0EBFD01228021274802F0E6FD4F
:1027380000220421234802F0E1FD3FE001220221AA
:10274800204802F0DBFD002280211F4802F0D6FD60
:10275800012204211B4802F0D1FD2FE000220221B2
:10276800184802F0CBFD01228021174802F0C6FD6F
:1027780001220421134802F0C1FD1FE001220221B9
:10278800104802F0BBFD012280210F4802F0B6FD7F
:10279800012204210B4802F0B1FD0FE000220221C2
:1027A800084802F0ABFD00228021074802F0A6FD90
:1027B80000220421034802F0A1FD00BF00BF083732
:1027C800BD4680BD002001400018014080B500AF23
:1027D80000F01EF800F0D8FC00F0CAFFFEF778FD04
:1027E8000123002201210648FEF796FFFFF7C8FBE8
:1027F800002300220021002000F0ACF900BF80BDBA
:10280800E8D1000880B500AFFEF7AEFF00BF80BD7D
:1028180080B400AF034B48221A6000BFBD4680BC9D
:10282800704700BF9804002080B489B000AF78607A
:102838000023BB61194B5B687B61194B1A687B6885
:1028480002FB03F33B61154B9B68FB61134B9B68D1
:10285800FB60FA68FB699A42F8D0FA68FB699A4209
:1028680006D2FA69FB68D31ABA691344BB6107E058
:102878007A69FB68D21AFB691344BA691344BB61CD
:10288800FB68FB61BA693B699A4200D2DEE700BF88
:1028980000BF2437BD4680BC704700BF10E000E091
:1028A8009804002080B582B000AF0346FB80FB8807
:1028B8004FF47A7202FB03F31846FFF7B5FF00BF27
:1028C8000837BD4680BD000080B485B000AF034620
:1028D800FB710023FB81FB79032B41D801A252F83D
:1028E80023F000BFFD280008172900083529000833
:1028F8004F2900081E4B5B6A9BB2C3F5FF437F3329
:102908009BB2FB811A4B47F6FF725A6229E04FF0DF
:1029180080435B6A9BB2C3F5FF437F339BB2FB8165
:102928004FF0804347F6FF725A621AE0114B5B6A18
:102938009BB2C3F5FF437F339BB2FB810D4B47F638
:10294800FF725A620DE00C4B5B6A9BB2C3F5FF4302
:102958007F339BB2FB81084B47F6FF725A6200E057
:1029680000BFB7F90E3018461437BD4680BC704713
:1029780000080040000C00400004004080B483B010
:1029880000AF78600B4B1A687B681A607B68043369
:10299800094A12681A607B680833084A12681A6084
:1029A8007B680C33064A12681A6000BF0C37BD46B4
:1029B80080BC70479C040020A0040020A4040020D0
:1029C800A804002080B500AF0020FFF77DFF034674
:1029D8001A46124B1B689B1A104A13600120FFF716
:1029E80073FF03461A460E4B1B689B1A0C4A13606A
:1029F8000220FFF769FF03461A460A4B1B68134477
:102A0800084A13600320FFF75FFF03461A46064B88
:102A18001B681344044A136000BF80BD9C04002057
:102A2800A0040020A4040020A804002080B400AF63
:102A3800024B1846BD4680BC704700BF0000824468
:102A480080B483B000AF0346FB71FB79002B03D140
:102A5800054B00221A7002E0034B01221A7000BFD6
:102A68000C37BD4680BC70473005002090B583B058
:102A780000AF0446084611461A462346FB80034623
:102A8800BB800B467B8013463B80B7F9063013F5B5
:102A9800616F0ADBB7F90630B3F5616F05DCB7F98A
:102AA80006301946002000F0CFFDB7F9043013F5C1
:102AB800616F0ADBB7F90430B3F5616F05DCB7F96C
:102AC80004301946012000F0BFFDB7F9023013F5B4
:102AD800616F0ADBB7F90230B3F5616F05DCB7F94E
:102AE80002301946022000F0AFFDB7F9003013F5A7
:102AF800616F0ADBB7F90030B3F5616F05DCB7F930
:102B080000301946032000F09FFD00BF0C37BD467A
:102B180090BD000080B582B000AF0346FB71002372
:102B280000220021002000F015F8042000F064FCC9
:102B3800064B00221A70064B00221A70FB791846C1
:102B480000F036FD00BF0837BD4680BDFC040020FC
:102B58003005002090B585B000AF04460846114600
:102B68001A462346FB800346BB800B467B801346F0
:102B78003B80184B01221A70174AFB881384164AA7
:102B8800BB885384144A7B889384134A3B88D38434
:102B98000023FB7316E0FB7B0F4A103332F9133026
:102BA8001846FDF797FC02460B4610461946FDF7F6
:102BB800F3FF0246FB7B1146184600F0A9FCFB7B9D
:102BC8000133FB73FB7B032BE5D900BF00BF143730
:102BD800BD4690BDFC0400200805002080B58AB0E1
:102BE80000AF786000237B6207F1080300221A60B7
:102BF8005A609A60DA6000F0D3F83862FFF716FF7F
:102C0800F86100F0C3F8B86100F0D4F800237B62E3
:102C18001EE05A4A7B6A52F82330642202FB03F30F
:102C28001846FEF7C3F80346396A1846FEF712F944
:102C38000346F9691846FEF7C1F903461A467B6A46
:102C48009B0028333B4443F8202C7B6A01337B628A
:102C58007B6A032BDDDDBB68FA6811461846FDF771
:102C6800F1FF03461A463B6919461046FDF7EAFF8D
:102C780003461A467B6919461046FDF7E3FF0346EB
:102C88004FF081411846FEF799F903461846FEF7BA
:102C9800A7FA03461AB27B681A80BB68FA6811461D
:102CA8001846FDF7CDFF03461A463B6919461046FC
:102CB800FDF7C6FF03461A467B6919461046FDF71D
:102CC800C1FF034683F000434FF081411846FEF7E9
:102CD80075F903461846FEF783FA03461AB27B686D
:102CE8005A80BB68FA6811461846FDF7ABFF0346E1
:102CF8001A463B6919461046FDF7A2FF03461A46D5
:102D08007B6919461046FDF79BFF034683F0004395
:102D18004FF081411846FEF751F90346B969184644
:102D2800FEF74CF9034616491846FEF793F8034692
:102D38001846FEF755FA03461AB27B689A80114B7B
:102D48001B78002B15D000237B620CE07B6A9B006C
:102D580028333B4453F8202C0B497B6A41F8232045
:102D68007B6A01337B627B6A032BEFDD064800F048
:102D78001BFB00BF2837BD4680BD00BFEC04002008
:102D880000007A44FC0400200805002080B400AF4D
:102D9800024B1846BD4680BC704700BF00001F4369
:102DA80080B400AF024B1846BD4680BC704700BFD8
:102DB800F8334C4380B582B000AF1348FFF7DEFD0F
:102DC8000023FB7117E0FB790F4A52F82310FB79B7
:102DD8000E4A52F82320FB798A1A0D4941F823201C
:102DE800FA79FB79084951F82220084941F823204B
:102DF800FB790133FB71FB79032BE4D900BF00BFDA
:102E08000837BD4680BD00BFCC040020DC0400208C
:102E1800EC04002080B582B000AF03460A46FB717F
:102E28001346BB803F4ABB881380FB79072B73D8B6
:102E380001A252F823F000BF612E00087B2E000883
:102E48008B2E00089F2E0008BF2E0008D92E0008E0
:102E5800F72E0008192F0008324B00221A80BB8871
:102E6800002B14BF01230023DBB21846FFF752FEE4
:102E780053E0B7F9043000220021184600F054F856
:102E88004BE0BB885B429BB21BB200220021184674
:102E980000F04AF841E0BB885B089BB218B2BB88D7
:102EA8001A46D203D31A5B009BB21BB21A46002102
:102EB80000F03AF831E0BB885B089BB218B2BB88D7
:102EC8005B009BB21BB21A46002100F02DF824E0EB
:102ED8000020FFF7B5FDBB881A46920013449BB249
:102EE8001BB21A460021002000F01EF815E0002051
:102EF800FFF7A6FDBB881A469203D21A9200D31A8E
:102F08009BB21BB21A460021002000F00DF804E025
:102F18000120FFF7FFFD00E000BF00BF0837BD46F6
:102F280080BD00BFC804002080B584B000AF034650
:102F3800FB800B46BB8013467B80FFF727FFF860BA
:102F48006F4B4FF000021A60B7F906301846FDF7CC
:102F58002DFF03466B4A1360B7F902301846FDF798
:102F680025FF034668491846FEF728F80346F9681E
:102F78001846FDF76FFF03461A46644B1A60B7F907
:102F88000630002B0BD1B7F90430002B07D1B7F965
:102F98000230002B03D10120FFF7BCFDADE0594BF7
:102FA8001B68574A126811461846FDF74BFE034640
:102FB8001A46564B1B6819461046FDF743FE034652
:102FC8001846FEF70DF90346514A13604D4B1B682E
:102FD8004B4A126811461846FDF732FE03461A4658
:102FE8004A4B1B6819461046FDF72CFE0346184647
:102FF800FEF7F6F80346474A1360424B1B68404AFF
:10300800126811461846FDF71BFE03461A463F4B49
:103018001B6819461046FDF713FE03461846FEF7CF
:10302800DFF803463C4A1360364B1B68344A126883
:1030380011461846FDF706FE03461A46334B1B6831
:1030480019461046FDF7FCFD03461846FEF7C8F87A
:103058000346324A13602E4B1B68B3F57A7F03DDB3
:103068002B4B4FF47A721A60294B1B6813F57A7F41
:1030780002DA274B2A4A1A60264B1B68B3F57A7F77
:1030880003DD244B4FF47A721A60224B1B6813F548
:103098007A7F02DA1F4B224A1A601F4B1B68B3F56E
:1030A8007A7F03DD1C4B4FF47A721A601A4B1B6847
:1030B80013F57A7F02DA184B194A1A60174B1B6806
:1030C800B3F57A7F03DD154B4FF47A721A60134B10
:1030D8001B6813F57A7F02DA104B114A1A600C4B01
:1030E8001B6818B20B4B1B6819B20B4B1B681AB242
:1030F8000A4B1B681BB2FFF72DFD1037BD4680BD7C
:10310800AC040020B004002000007A44B40400207D
:10311800B8040020BC040020C0040020C40400201F
:1031280018FCFFFFF8B500AF1448FFF757FD144B24
:103138001B78002B20D0134B1B691846FEF750F85C
:1031480003461CB20F4B5B691846FEF749F8034665
:103158001DB20C4B9B691846FEF742F803461EB297
:10316800084BDB691846FEF73BF803461BB23246AC
:1031780029462046FFF77AFC00BFF8BD000500206D
:10318800FC0400200805002080B483B000AF0023B1
:103198007B6062E03A497A6813469B001344DB007F
:1031A8000B444FF000021A6035497A6813469B00B9
:1031B8001344DB000B4408334FF000021A60304917
:1031C8007A6813469B001344DB000B4418334FF016
:1031D80000021A602A497A6813469B001344DB00F0
:1031E8000B441C334FF000021A6025497A681346D5
:1031F8009B001344DB000B4420334FF000021A609D
:103208001F497A6813469B001344DB000B442433A0
:103218004FF000021A601A497A6813469B0013445B
:10322800DB000B440C33174A1A6015497A681346B9
:103238009B001344DB000B441033134A1A601049F7
:103248007A6813469B001344DB000B4414334FF099
:103258007C521A607B6801337B607B68032B99DDA5
:103268000A4B0B4A5A60094B4FF000029A60074B11
:10327800084ADA6000BF0C37BD4680BC704700BF03
:1032880034050020CDCC4C3F8FC2753D3000002066
:10329800CDCCCC3ECDCCCC3D2DE9F04182B000AFB9
:1032A800786039607B681B6839681846FDF7C8FC88
:1032B80003461A467B689A617B689C687B68DD6870
:1032C8007B689A697B681B6A19461046FDF7B8FC4B
:1032D800034619462846FDF7BDFD03461D467B6893
:1032E8001A697B689B6919461046FDF7B3FD0346CA
:1032F80019462846FDF7A6FC034698467B685D6993
:103308007B689E697B681B6A19461846FDF79AFC1C
:10331800034619463046FDF793FC03461A467B6878
:10332800DB6919461046FDF78DFC03461946284609
:10333800FDF790FD034619464046FDF783FC03461A
:1033480019462046FDF77EFC03461A467B689A60BC
:103358007B681A6A7B68DA617B689A697B681A629B
:103368007B689B680E491846FDF730FF0346002B23
:1033780002D07B680A4A9A607B689B6809491846AC
:10338800FDF706FF0346002B02D07B68054A9A60CA
:103398007B689B6818460837BD46BDE8F08100BFCA
:1033A8000000C8440000C8C480B584B000AF78608D
:1033B8000023FB6016E0FA6813469B001344DB0009
:1033C8000C4A98187B68FA6853F822301946FFF7B8
:1033D80063FF01467B68FA68043243F82210FB68F1
:1033E8000133FB60FB68032BE5DD00BF00BF10372E
:1033F800BD4680BD3405002080B485B000AF0346CB
:10340800FB71FB79042B7BD8FB79042B40D100237B
:10341800FB6039E03D49FA6813469B001344DB0022
:103428000B4408334FF000021A603849FA68134613
:103438009B001344DB000B4418334FF000021A6062
:103448003249FA6813469B001344DB000B441C33D3
:103458004FF000021A602D49FA6813469B00134486
:10346800DB000B4420334FF000021A602749FA684A
:1034780013469B001344DB000B4424334FF0000237
:103488001A60FB680133FB60FB68032BC2DD38E080
:10349800FA791E4913469B001344DB000B4408339A
:1034A8004FF000021A60FA79184913469B0013443A
:1034B800DB000B4418334FF000021A60FA79134905
:1034C80013469B001344DB000B441C334FF00002EF
:1034D8001A60FA790D4913469B001344DB000B442C
:1034E80020334FF000021A60FA79084913469B000E
:1034F8001344DB000B4424334FF000021A6000E051
:1035080000BF1437BD4680BC704700BF340500209B
:1035180080B485B000AF03463960FB71FB79042B9A
:103528001FD8FB79042B12D10023FB600BE00F4955
:10353800FA6813469B001344DB000B443A681A6090
:10354800FB680133FB60FB68032BF0DD0AE0FA79C6
:10355800064913469B001344DB000B443A681A6083
:1035680000E000BF1437BD4680BC7047340500201A
:1035780080B483B000AF0346FB80B7F90630002B58
:1035880005DDFB8803F5FA639BB21BB20AE0B7F9C5
:103598000630002B05DAFB88A3F5FA639BB21BB251
:1035A80000E0002318460C37BD4680BC7047000079
:1035B80080B483B000AF0346FB71FB79002B01D0C8
:1035C8000123FB71FB794FF4616203FB02F21C4B90
:1035D8005A63FB794FF4616203FB02F2184B9A635A
:1035E800FB794FF4616203FB02F2154BDA63FB7956
:1035F8004FF4616203FB02F2114B1A64FB794FF43A
:10360800616203FB02F20F4B5A63FB794FF461626C
:1036180003FB02F20B4B9A63FB794FF4616203FBE5
:1036280002F2084BDA63FB794FF4616203FB02F2A2
:10363800044B1A6400BF0C37BD4680BC704700BFFE
:1036480000340140002C014080B584B000AF03462F
:103658000A46FB711346BB80B7F904301846FFF7DA
:1036680087FF0346FB81B7F90E30B3F5616F02DBC4
:103678004FF46163FB81B7F90E3013F5616F02DC1B
:103688004FF2F013FB81FB79032B67D801A252F8A4
:1036980023F000BFAD360008DF36000811370008F8
:1036A8003B370008FB895B429BB2FB81B7F90E30C0
:1036B800002B07DB2C4AB7F90E3053632A4B002244
:1036C8009A634CE0284B00225A63B7F90E305A42ED
:1036D800254B9A6343E0FB895B429BB2FB81B7F9B8
:1036E8000E30002B07DB204AB7F90E30D3631E4B90
:1036F80000221A6433E01C4B0022DA63B7F90E305B
:103708005A42194B1A642AE0B7F90E30002B07DB2E
:10371800164AB7F90E305363144B00229A631EE021
:10372800124B00225A63B7F90E305A420F4B9A6374
:1037380015E0B7F90E30002B07DB0C4AB7F90E304D
:10374800D3630A4B00221A6409E0084B0022DA63AB
:10375800B7F90E305A42054B1A6400E000BF00BFAB
:103768001037BD4680BD00BF00340140002C014029
:1037780080B500AF0021244803F0F4FA0421224860
:1037880003F0F0FA0821204803F0ECFA0C211E4857
:1037980003F0E8FA00211D4803F0E4FA04211B486D
:1037A80003F0E0FA0821194803F0DCFA0C21174865
:1037B80003F0D8FA4FF0804347F6FF725A620421AB
:1037C800134803F09BFD134B47F6FF725A6204211E
:1037D800114803F093FD114B47F6FF725A6204211A
:1037E8000F4803F08BFD0F4B47F6FF725A62042116
:1037F8000D4803F083FD0D4803F044F90C4803F02D
:1038080041F900BF80BD00BF340600202C0800200D
:103818007C06002000040040C40600200008004088
:103828000C070020000C0040540700209C070020D3
:10383800E407002080B582B000AF78607B681B6821
:103848000C4A934203D1FFF7BDF8FFF76BFC7B6886
:103858001B68094A934208D1084B1B78002B04D0F7
:10386800074B1B680133064A136000BF0837BD4683
:1038780080BD00BF0010004000140040D8050020A3
:10388800D405002080B584B000AF4FF000037B6002
:103898004FF00003FB600023FB7261E001224FF44C
:1038A8000061364801F02AFD1420FEF7BDFF002212
:1038B8004FF40061314801F021FD00BF4FF4805101
:1038C8002E4801F0FBFC0346002BF7D02C4B0122BD
:1038D8001A70FB7A0133FB7210E02A4B1B683B809D
:1038E8003B8842F20F72934208D9254B00221A7086
:1038F800244B00221A604FF000033BE04FF4805144
:103908001E4801F0DBFC0346012BE6D01C4B0022CD
:103918001A701D4B5B6A7B8079881A4B1A681346AC
:103928009B0013445B000B441846FCF7C3FD4FF0A3
:103938000002164BFCF762FF02460B46104619467A
:10394800FDF72AF903467B607968F868FDF77AF98C
:103958000346FB600B4B00221A600A2001F0BAF8FC
:10396800FB7A052B9AD10A49F868FDF727FB03462D
:103978007B607B6818461037BD4680BD001C01403F
:10398800D8050020D40500200014004000404D4018
:103998000000A04080B58CB000AF07F120030022E2
:1039A8001A605A609A60DA605F4B9B695E4A43F01E
:1039B800400393615C4B9B6903F04003FB61FB6927
:1039C800594B9B69584A43F004039361564B9B69D2
:1039D80003F00403BB61BB69534B9B69524A43F034
:1039E80080039361504B9B6903F080037B617B6983
:1039F8004D4B9B694C4A43F4807393614A4B9B69D6
:103A080003F480733B613B69474B9B69464A43F02B
:103A180020039361444B9B6903F02003FB60FB6820
:103A2800414B9B69404A43F0100393613E4B9B69AD
:103A380003F01003BB60BB683B4B9B693A4A43F0F9
:103A480008039361384B9B6903F008037B607B682C
:103A580000229C21354801F051FC0022B021344855
:103A680001F04CFC01224FF40061324801F046FCA1
:103A780000220621304801F041FC9C233B620123CF
:103A88007B620023BB620123FB6207F12003194616
:103A9800264801F07FF9B0233B6201237B620023B3
:103AA800BB620123FB6207F120031946204801F09D
:103AB80071F940233B6200237B620123BB6207F15B
:103AC800200319461A4801F065F94FF400633B6278
:103AD80001237B620023BB620323FB6207F12003FF
:103AE8001946144801F056F94FF480533B620023FD
:103AF8007B620023BB6207F1200319460D4801F0E1
:103B080049F906233B6201237B620023BB62012340
:103B1800FB6207F120031946074801F03BF900BF93
:103B28003037BD4680BD00BF00100240001801407C
:103B380000080140001C01400020014080B500AF92
:103B4800124B134A1A60114B124A5A600F4B00224B
:103B58009A600E4B0022DA600C4B4FF480421A61D7
:103B68000A4B00225A61094B00229A61074B002236
:103B7800DA61064B00221A62044801F0EBFB0346A7
:103B8800002B01D000F0AAF800BF80BDDC050020A2
:103B980000540040801A060080B588B000AF7860F5
:103BA80007F1100300221A605A609A60DA607B6895
:103BB8001B68154A934223D1144B9B69134A43F05F
:103BC80008039361114B9B6903F00803FB60FB68D2
:103BD800C0233B6112237B610323FB6107F11003C0
:103BE80019460B4801F0D6F8084BDB69074A43F43D
:103BF8000013D361054BDB6903F40013BB60BB689A
:103C080000BF2037BD4680BD005400400010024070
:103C1800000C014080B500AF00F0FAFE00F019F882
:103C2800FFF7B8FE00F0A6F900F068FA00F0BAFA5B
:103C380000F00CFB00F05EFB00F0B0FB00F018FC9D
:103C4800FFF77CFF00F0E0FBFEF7C0FDFEF7DAFDB2
:103C5800FCE780B590B000AF07F1180328220021D7
:103C6800184605F0D6FE3B1D00221A605A609A607D
:103C7800DA601A610123BB614FF48033FB610023D2
:103C88003B620123BB6202237B634FF48033BB6337
:103C98004FF4E013FB6307F11803184602F090F89D
:103CA8000346002B01D000F019F80F237B60022394
:103CB800BB600023FB604FF480633B6100237B61A2
:103CC8003B1D0221184602F0E9FB0346002B01D0F8
:103CD80000F004F800BF4037BD4680BD80B400AF97
:103CE80072B600BF00BFFDE780B483B000AF786054
:103CF800396000BF0C37BD4680BC704780B584B0C2
:103D080000AF164B9B69154A43F001039361134BAF
:103D18009B6903F00103BB60BB68104BDB690F4A6A
:103D280043F08053D3610D4BDB6903F080537B6014
:103D38007B68052000F0BEFF094B5B68FB60FB68F1
:103D480023F0E063FB60FB6843F00073FB60044A08
:103D5800FB68536000BF1037BD4680BD00100240AD
:103D68000000014080B400AF00BFFDE780B400AFA1
:103D780000BFFDE780B400AF00BFFDE780B400AF2F
:103D880000BFFDE780B400AF00BFFDE780B400AF1F
:103D980000BFBD4680BC704780B400AF00BFBD46C1
:103DA80080BC704780B400AF00BFBD4680BC704780
:103DB80080B500AF00F072FE00BF80BD80B500AFD7
:103DC800024803F059FB00BF80BD00BF9C070020DC
:103DD80080B500AF024803F04FFB00BF80BD00BFB5
:103DE800E407002080B400AF01231846BD4680BC1C
:103DF800704780B582B000AF7860396005F05CFE2E
:103E0800034616221A604FF0FF3318460837BD469E
:103E180080BD80B582B000AF78604FF0FF31786820
:103E2800FFF7E7FF00BFFDE780B586B000AFF86099
:103E3800B9607A6000237B610AE0AFF30080014635
:103E4800BB685A1CBA60CAB21A707B6901337B61BD
:103E58007A697B689A42F0DB7B6818461837BD465A
:103E680080BD80B586B000AFF860B9607A60002385
:103E78007B6109E0BB685A1CBA601B781846AFF32F
:103E880000807B6901337B617A697B689A42F1DB48
:103E98007B6818461837BD4680BD80B483B000AF34
:103EA80078604FF0FF3318460C37BD4680BC70472A
:103EB80080B483B000AF786039603B684FF400523B
:103EC8005A60002318460C37BD4680BC704780B442
:103ED80083B000AF7860012318460C37BD4680BC1C
:103EE800704780B485B000AFF860B9607A6000238D
:103EF80018461437BD4680BC7047000080B586B0B0
:103F080000AF7860144A154BD31A7B617B693B611B
:103F1800134B1B68002B02D1114B124A1A60104B2D
:103F28001A687B6813443A699A4207D205F0C4FDBF
:103F380003460C221A604FF0FF3309E0084B1B6858
:103F4800FB60074B1A687B681344054A1360FB68DB
:103F580018461837BD4680BD000001200004000047
:103F680030060020C809002080B400AF00BFBD465D
:103F780080BC704780B596B000AF07F148030022B7
:103F88001A605A609A60DA6007F1400300221A60EA
:103F98005A6007F1240300221A605A609A60DA60B6
:103FA8001A615A619A613B1D20220021184605F0CA
:103FB80030FD504B504A1A604E4B00225A604D4B10
:103FC80000229A604B4B40F60F62DA60494B0022A0
:103FD8001A61484B00225A61464B80229A61454833
:103FE80002F07CFC0346002B01D0FFF777FE4FF46C
:103FF8008053BB6407F1480319463E4803F0E6FCCA
:104008000346002B01D0FFF769FE3A4802F0CCFDC9
:104018000346002B01D0FFF761FE00233B64002319
:104028007B6407F140031946324804F0B3FB0346AA
:10403800002B01D0FFF752FE60237B620023BB6296
:104048000023FB6200233B6300237B630023BB63E5
:104058000023FB6307F1240300221946254803F0D7
:1040680013FB0346002B01D0FFF738FE07F12403AA
:10407800042219461F4803F007FB0346002B01D012
:10408800FFF72CFE07F1240308221946194803F00C
:10409800FBFA0346002B01D0FFF720FE07F12403AB
:1040A8000C221946134803F0EFFA0346002B01D0FF
:1040B800FFF714FE00237B600023BB600023FB6036
:1040C80000233B6100237B614FF40053BB61002355
:1040D8003B623B1D1946074804F02CFC0346002BA5
:1040E80001D0FFF7FBFD034800F002FC00BF583782
:1040F800BD4680BD34060020002C014080B58CB040
:1041080000AF07F10C0324220021184605F081FCBA
:104118003B1D00221A605A60214B4FF080421A6002
:104128001F4B00225A601E4B00229A601C4B4FF610
:10413800FF72DA601A4B00221A61194B00229A6149
:104148000323FB6000233B6101237B610023BB61E8
:104158000023FB6100233B6201237B620023BB62D7
:104168000023FB6207F10C0319460D4802F022FFF9
:104178000346002B01D0FFF7B1FD00237B6000232D
:10418800BB603B1D1946064804F004FB0346002BA0
:1041980001D0FFF7A3FD00BF3037BD4680BD00BF8B
:1041A8007C06002080B58CB000AF07F10C032422F8
:1041B8000021184605F02DFC3B1D00221A605A60AC
:1041C800204B214A1A601F4B00225A601D4B0022C7
:1041D8009A601C4B4FF6FF72DA601A4B00221A6184
:1041E800184B00229A610323FB6000233B610123E3
:1041F8007B610023BB610023FB6100233B62012339
:104208007B620023BB620023FB6207F10C031946A3
:104218000C4802F0CFFE0346002B01D0FFF75EFDED
:1042280000237B600023BB603B1D1946054804F052
:10423800B1FA0346002B01D0FFF750FD00BF30371D
:10424800BD4680BDC40600200004004080B58CB087
:1042580000AF07F10C0324220021184605F0D9FB12
:104268003B1D00221A605A60204B214A1A601F4BDE
:1042780000225A601D4B00229A601C4B4FF6FF72B9
:10428800DA601A4B00221A61184B00229A61032344
:10429800FB6000233B6101237B610023BB6100239A
:1042A800FB6100233B6201237B620023BB62002386
:1042B800FB6207F10C0319460C4802F07BFE03462B
:1042C800002B01D0FFF70AFD00237B600023BB60B1
:1042D8003B1D1946054804F05DFA0346002B01D042
:1042E800FFF7FCFC00BF3037BD4680BD0C0700203F
:1042F8000008004080B58CB000AF07F10C03242201
:104308000021184605F085FB3B1D00221A605A6003
:10431800204B214A1A601F4B00225A601D4B002275
:104328009A601C4B4FF6FF72DA601A4B00221A6132
:10433800184B00229A610323FB6000233B61012391
:104348007B610023BB610023FB6100233B620123E7
:104358007B620023BB620023FB6207F10C03194652
:104368000C4802F027FE0346002B01D0FFF7B6FCED
:1043780000237B600023BB603B1D1946054804F001
:1043880009FA0346002B01D0FFF7A8FC00BF30371D
:10439800BD4680BD54070020000C004080B582B0A7
:1043A80000AF3B4600221A605A60154B154A1A6046
:1043B800134B41F61F425A60114B00229A60104B72
:1043C8006322DA600E4B00229A610D4802F086FAE9
:1043D8000346002B01D0FFF781FC00233B6000233C
:1043E8007B603B461946064804F0D4F90346002B87
:1043F80001D0FFF773FC00BF0837BD4680BD00BF82
:104408009C0700200010004080B582B000AF3B46FA
:1044180000221A605A60144B144A1A60124B472241
:104428005A60114B00229A600F4B0922DA600E4B3A
:1044380000229A610C4802F051FA0346002B01D081
:10444800FFF74CFC00233B6000237B603B4619468A
:10445800054804F09FF90346002B01D0FFF73EFC06
:1044680000BF0837BD4680BDE407002000140040A7
:1044780080B596B000AF07F1480300221A605A6071
:104488009A60DA6007F1400300221A605A6007F167
:10449800240300221A605A609A60DA601A615A612D
:1044A8009A613B1D20220021184605F0B2FA504BB4
:1044B800504A1A604E4B00225A604D4B00229A60B7
:1044C8004B4B40F60F62DA60494B00221A61484BA9
:1044D80000225A61464B80229A61454802F0FEF953
:1044E8000346002B01D0FFF7F9FB4FF48053BB6460
:1044F80007F1480319463E4803F068FA0346002BC3
:1045080001D0FFF7EBFB3A4802F04EFB0346002BC5
:1045180001D0FFF7E3FB00233B6400237B6407F132
:1045280040031946324804F035F90346002B01D000
:10453800FFF7D4FB60237B620023BB620023FB628E
:1045480000233B6300237B630023BB630023FB63DF
:1045580007F1240300221946254803F095F803467D
:10456800002B01D0FFF7BAFB07F1240304221946F8
:104578001F4803F089F80346002B01D0FFF7AEFB74
:1045880007F1240308221946194803F07DF8034669
:10459800002B01D0FFF7A2FB07F124030C221946D8
:1045A800134803F071F80346002B01D0FFF796FB80
:1045B80000237B600023BB600023FB6000233B617A
:1045C80000237B614FF40053BB6100233B623B1D1A
:1045D8001946074804F0AEF90346002B01D0FFF74F
:1045E8007DFB034800F084F900BF5837BD4680BD05
:1045F8002C0800200034014080B586B000AF7860F8
:104608007B681B682C4A93420CD12C4B9B692B4A24
:1046180043F400639361294B9B6903F400637B6156
:104628007B6944E07B681B68254A934214D1234B7D
:10463800DB69224A43F01003D361204BDB6903F0A6
:1046480010033B613B6902220221362000F052FB35
:10465800362000F07BFB2AE07B681B68194A9342EE
:1046680014D1164BDB69154A43F02003D361134B71
:10467800DB6903F02003FB60FB680022012137207F
:1046880000F038FB372000F061FB10E07B681B6806
:104698000D4A93420BD1094B9B69084A43F40053D6
:1046A8009361064B9B6903F40053BB60BB6800BF72
:1046B8001837BD4680BD00BF002C014000100240E5
:1046C80000100040001400400034014080B592B052
:1046D80000AF786007F12C0300221A605A609A60D4
:1046E800DA607B681B68B3F1804F4FD1784BDB6988
:1046F800774A43F00103D361754BDB6903F001038B
:10470800BB62BB6A724B9B69714A43F004039361B5
:104718006F4B9B6903F004037B627B6A6C4B9B695C
:104728006B4A43F008039361694B9B6903F00803E4
:104738003B623B6A4FF40043FB6200233B63002368
:104748007B6307F12C031946624800F023FB08231A
:10475800FB6200233B6300237B6307F12C031946AC
:104768005D4800F017FB5D4B5B68FB63FB6B23F454
:104778004073FB63FB6B43F0E063FB63FB6B43F449
:104788008073FB63554AFB6B53609DE07B681B6835
:10479800534A934236D14E4BDB694D4A43F00203EC
:1047A800D3614B4BDB6903F00203FB61FB69484BA8
:1047B8009B69474A43F008039361454B9B6903F0A3
:1047C8000803BB61BB693023FB6200233B63002302
:1047D8007B6307F12C0319463F4800F0DBFA3F4B97
:1047E8005B683B643B6C23F440633B643B6C43F085
:1047F800E0633B643B6C43F400633B64374A3B6CC7
:10480800536061E07B681B68364A934233D1304B72
:10481800DB692F4A43F00403D3612D4BDB6903F0B6
:1048280004037B617B692A4B9B69294A43F0200377
:104838009361274B9B6903F020033B613B694FF46D
:104848004053FB6200233B6300237B6307F12C0387
:104858001946254800F09EFA204B5B687B647B6C08
:1048680043F0E0637B647B6C43F480537B641B4AB6
:104878007B6C536028E07B681B681C4A934223D1F9
:10488800134BDB69124A43F00803D361104BDB6911
:1048980003F00803FB60FB680D4B9B690C4A43F06F
:1048A800040393610A4B9B6903F00403BB60BB6874
:1048B8000323FB6200233B6300237B6307F12C0384
:1048C8001946044800F066FA00BF4837BD4680BD67
:1048D8000010024000080140000C014000000140A7
:1048E800000400400008004000140140000C004093
:1048F80080B58AB000AF786007F1140300221A600F
:104908005A609A60DA607B681B68284A93422BD108
:10491800274B9B69264A43F040039361244B9B69CC
:1049280003F040033B613B694FF4D4437B610223AE
:10493800BB6102233B6207F1140319461D4800F0CE
:1049480029FA1D4B5B687B627B6A23F0C0037B629C
:104958007B6A43F0E0637B627B6A43F0C0037B625F
:10496800154A7B6A53601DE07B681B68134A9342B3
:1049780018D10F4B9B690E4A43F0100393610C4BFF
:104988009B6903F01003FB60FB684FF470737B6155
:104998000223BB6102233B6207F11403194608484E
:1049A80000F0F8F900BF2837BD4680BD002C014053
:1049B800001002400018014000000140003401408E
:1049C80000100140FFF7D0FA0B480C490C4A0023AD
:1049D80002E0D458C4500433C4188C42F9D3094AAD
:1049E800094C002301E013600432A242FBD305F016
:1049F80069F8FFF70FF97047000000202002002037
:104A080030DF000820020020C4090020FEE7000073
:104A180080B500AF084B1B68074A43F010031360CA
:104A2800032000F047F9032000F008F8FFF766F9C3
:104A38000023184680BD00BF0020024080B582B028
:104A480000AF7860124B1A68124B1B7819464FF466
:104A58007A73B3FBF1F3B2FBF3F3184600F08EF967
:104A68000346002B01D001230EE07B680F2B0AD8E8
:104A7800002279684FF0FF3000F03CF9064A7B6865
:104A88001360002300E0012318460837BD4680BDA7
:104A98004C000020540000205000002080B400AFDB
:104AA800054B1B781A46054B1B681344034A1360D1
:104AB80000BFBD4680BC7047540000207408002029
:104AC80080B400AF024B1B681846BD4680BC7047D7
:104AD8007408002080B584B000AF7860FFF7F0FF5D
:104AE800B8607B68FB60FB68B3F1FF3F05D00A4BF9
:104AF8001B781A46FB681344FB6000BFFFF7E0FF12
:104B08000246BB68D31AFA689A42F7D800BF00BFBA
:104B18001037BD4680BD00BF5400002080B485B06A
:104B280000AF78607B6803F00703FB600C4BDB6821
:104B3800BB60BA684FF6FF031340BB60FB681A02FC
:104B4800BB68134343F0BF6343F40033BB60044ABC
:104B5800BB68D36000BF1437BD4680BC704700BF38
:104B680000ED00E080B400AF044BDB681B0A03F0E3
:104B780007031846BD4680BC704700BF00ED00E043
:104B880080B483B000AF0346FB7197F90730002B60
:104B98000BDBFB7903F01F02064997F907305B0925
:104BA800012000FA02F241F8232000BF0C37BD466D
:104BB80080BC704700E100E080B483B000AF0346DA
:104BC8003960FB7197F90730002B0ADB3B68DAB2D2
:104BD8000C4997F907301201D2B20B4483F800232D
:104BE8000AE03B68DAB20849FB7903F00F03043B9B
:104BF8001201D2B20B441A7600BF0C37BD4680BCF6
:104C0800704700BF00E100E000ED00E080B489B02B
:104C180000AFF860B9607A60FB6803F00703FB61D6
:104C2800FB69C3F10703042B28BF0423BB61FB699D
:104C38000433062B02D9FB69033B00E000237B61A8
:104C48004FF0FF32BB6902FA03F3DA43BB681A403C
:104C58007B699A404FF0FF317B6901FA03F3D9432E
:104C68007B680B40134318462437BD4680BC704709
:104C780080B582B000AF78607B68013BB3F1807F7C
:104C880001D301230FE00A4A7B68013B53600F21DF
:104C98004FF0FF30FFF790FF054B00229A60044B5E
:104CA80007221A60002318460837BD4680BD00BF9A
:104CB80010E000E080B582B000AF78607B68072B19
:104CC8000FD07B68062B0CD07B68052B09D07B683E
:104CD800042B06D07B68032B03D091210448FFF7EF
:104CE80003F87868FFF71AFF00BF0837BD4680BD94
:104CF800FCD1000880B586B000AF0346B9607A6081
:104D0800FB7300237B617B680F2B03D9A9210E4815
:104D1800FEF7EAFFBB680F2B03D9AA210A48FEF762
:104D2800E3FFFFF71FFF78617A68B9687869FFF7D2
:104D38006DFF024697F90F3011461846FFF73CFF02
:104D480000BF1837BD4680BDFCD1000880B582B0D1
:104D580000AF0346FB7197F90730002B03DABD213A
:104D68000548FEF7C1FF97F907301846FFF708FF17
:104D780000BF0837BD4680BDFCD1000880B582B0B1
:104D880000AF78607868FFF773FF03461846083766
:104D9800BD4680BD80B58AB000AF78603960002319
:104DA8007B6200233B627B68944A93421BD07B68FA
:104DB800934A934217D07B68924A934213D07B68F8
:104DC800914A93420FD07B68904A93420BD07B68FC
:104DD8008F4A934207D07B688E4A934203D0BD2105
:104DE8008D48FEF781FF3B681B689BB2002B04D0FF
:104DF8003B681B68B3F5803F03D3BE218648FEF7A6
:104E080073FF3B685B68002B00F036823B685B6889
:104E1800012B00F031823B685B68112B00F02C827B
:104E28003B685B68022B00F027823B685B68122BAB
:104E380000F022823B685B68784A934200F01C824B
:104E48003B685B68764A934200F016823B685B6871
:104E5800744A934200F010823B685B68724A93423E
:104E680000F00A823B685B68704A934200F0048253
:104E78003B685B686E4A934200F0FE813B685B6862
:104E8800032B00F0F981BF216348FEF72DFFF3E102
:104E980001227B6A02FA03F3FB613B681B68FA692B
:104EA8001340BB61BA69FB699A4240F0E2817B68B2
:104EB800524A93421BD07B68514A934217D07B6871
:104EC800504A934213D07B684F4A93420FD07B6875
:104ED8004E4A93420BD07B684D4A934207D07B6879
:104EE8004C4A934203D0CD214B48FEF7FDFE3B6868
:104EF8005B684F4A934200F0C7804D4A934200F2E4
:104F0800ED80484A934200F0BF80464A934200F23F
:104F1800E580464A934200F0B780444A934200F243
:104F2800DD803F4A934200F0AF803D4A934200F251
:104F3800D5803D4A934200F0A7803B4A934200F255
:104F4800CD80122B2CD8122B00F2C88001A252F867
:104F580023F000BF91500008B14F00083D500008F1
:104F6800DF500008E5500008E5500008E55000084B
:104F7800E5500008E5500008E5500008E550000835
:104F8800E5500008E5500008E5500008E550000825
:104F9800E5500008E5500008D94F000867500008A0
:104FA8001E4A934270D099E03B68DB68022B0BD015
:104FB8003B68DB68012B07D03B68DB68032B03D019
:104FC800D5211548FEF790FE3B68DB683B6286E01A
:104FD8003B68DB68022B0BD03B68DB68012B07D0F2
:104FE8003B68DB68032B03D0DC210B48FEF77CFE13
:104FF8003B68DB6804333B6271E000BF0008014096
:10500800000C01400010014000140140001801404C
:10501800001C01400020014038D200080000111097
:1050280000002110000031100000121000002210B2
:10503800000032103B68DB68022B0BD03B68DB6852
:10504800012B07D03B68DB68032B03D0E321914891
:10505800FEF74AFE3B68DB6808333B623FE03B688B
:10506800DB68022B0BD03B68DB68012B07D03B6861
:10507800DB68032B03D0EA218648FEF735FE3B6840
:10508800DB680C333B622AE03B689B68002B0BD043
:105098003B689B68012B07D03B689B68022B03D0B9
:1050A800F7217C48FEF720FE3B689B68002B02D165
:1050B80004233B6213E03B689B68012B05D108235E
:1050C8003B627B68FA691A6109E008233B627B68E6
:1050D800FA695A6103E000233B6200E000BFBB6944
:1050E800FF2B01D87B6801E07B6804337B61BB69D7
:1050F800FF2B02D87B6A9B0002E07B6A083B9B007F
:105108003B617B691A680F213B6901FA03F3DB43B2
:105118001A40396A3B6901FA03F31A437B691A603A
:105128003B685B6803F08053002B00F0A2805A4B69
:105138009B69594A43F001039361574B9B6903F0FC
:105148000103BB60BB68554A7B6A9B08023352F86F
:105158002330FB607B6A03F003039B000F2202FAF3
:1051680003F3DB43FA681340FB607B684C4A9342C5
:105178001FD07B684B4A934219D07B684A4A9342B6
:1051880013D07B68494A93420DD07B68484A9342C2
:1051980007D07B68474A934201D105230AE00623DA
:1051A80008E0042306E0032304E0022302E00123CD
:1051B80000E000237A6A02F0030292009340FA6842
:1051C8001343FB6035497B6A9B080233FA6841F850
:1051D80023203B685B6803F48013002B06D0364B12
:1051E8009A683549BB6913438B6006E0324B9A686D
:1051F800BB69DB43304913408B603B685B6803F451
:105208000013002B06D02C4BDA682B49BB691343DB
:10521800CB6006E0284BDA68BB69DB4326491340BC
:10522800CB603B685B6803F40033002B06D0224B4D
:105238005A682149BB6913434B6006E01E4B5A6804
:10524800BB69DB431C4913404B603B685B6803F454
:105258008033002B06D0184B1A681749BB691343D3
:105268000B6006E0144B1A68BB69DB431249134014
:105278000B607B6A01337B623B681A687B6A22FA9F
:1052880003F3002B7FF404AE00BF00BF2837BD46F0
:1052980080BD00BF38D20008001002400000014065
:1052A80000080140000C01400010014000140140BA
:1052B80000180140001C01400004014080B584B082
:1052C80000AF78600B467B807B88002B04D14FF4BD
:1052D800DA710948FEF708FD7B689A687B881340F5
:1052E800002B02D00123FB7301E00023FB73FB7B3F
:1052F80018461037BD4680BD38D2000880B582B048
:1053080000AF78600B467B8013467B707B88002B50
:1053180004D14FF4EA710E48FEF7E6FC7B78002BC7
:1053280007D07B78012B04D040F2D5110848FEF74E
:10533800DBFC7B78002B03D07A887B681A6103E05A
:105348007B881A047B681A6100BF0837BD4680BD98
:1053580038D2000880B584B000AF78607B68002B35
:1053680001D10123B4E17B681B689B4A934209D0B1
:105378007B681B68994A934204D040F2DB11984835
:10538800FEF7B2FC7B685B68002B04D07B685B6827
:10539800944A934204D94FF4EE719148FEF7A4FC65
:1053A8007B689B68002B09D07B689B68B3F5804FAE
:1053B80004D040F2DD118A48FEF796FC7B68DB6872
:1053C800B3F5806F04D34FF4EF718548FEF78CFC7A
:1053D8007B681B69B3F5804F09D07B681B69B3F5FF
:1053E800404F04D040F2DF117D48FEF77DFC7B681A
:1053F8005B69002B08D07B685B69012B04D04FF4F4
:10540800F0717748FEF770FC7B689B6923F0FE0318
:10541800002B04D040F2E1117148FEF765FC7B686F
:10542800DB69002B08D07B68DB69402B04D04FF484
:10543800F1716B48FEF758FC7B681B6A002B08D09B
:105448007B681B6A802B04D040F2E3116448FEF7A6
:105458004BFC7B6893F83D30DBB2002B06D17B68B0
:10546800002283F83C207868FEF796FB7B682422AC
:1054780083F83D207B681B681A687B681B6822F0EC
:1054880001021A607B681B681A687B681B6842F413
:1054980000421A607B681B681A687B681B6822F4E4
:1054A80000421A6001F0E8F9F8607B685B684E4AD0
:1054B800934207D8FB684D4A934294BF01230023C7
:1054C800DBB206E0FB684A4A934294BF01230023FB
:1054D800DBB2002B01D00123FAE0FB68454AA2FBAE
:1054E80003239B0CBB607B681B685B6823F03F0150
:1054F8007B681B68BA680A435A607B681B681B6A2A
:1055080023F03F017B685B68374A934202D8BB6847
:10551800013309E0BB684FF4967202FB03F3364A85
:10552800A2FB03239B0901337A6812680B431362B9
:105538007B681B68DB6923F44F4222F0FF027B681B
:105548005B6829498B4219D8FB68591E7B685B68E0
:105558005B00B1FBF3F3591C40F6FC730B40002BC6
:105568000AD0FB68591E7B685B685B00B1FBF3F3EC
:105578000133C3F30B0364E0042362E07B689B6898
:10558800002B11D1FB68581E7B6859680B465B00DD
:105598000B44B0FBF3F30133C3F30B03002B0CBF35
:1055A80001230023DBB212E0FB68581E7B685968B0
:1055B8000B469B000B4499000B44B0FBF3F30133FB
:1055C800C3F30B03002B0CBF01230023DBB2002B1A
:1055D80014D0012335E000BF0054004000580040BB
:1055E80074D20008801A0600A08601007F841E007D
:1055F800FF083D0083DE1B43D34D62107B689B6828
:10560800002B0ED1FB68581E7B6859680B465B005F
:105618000B44B0FBF3F30133C3F30B0343F4004330
:105628000FE0FB68581E7B6859680B469B000B44CB
:1056380099000B44B0FBF3F30133C3F30B0343F4BA
:105648004043796809681343CB617B681B681B6812
:1056580023F0C0017B68DA697B681B6A1A437B68A0
:105668001B680A431A607B681B689B6823F4034322
:1056780023F0FF037A6811697A68D26811437A685F
:1056880012680B4393607B681B68DB6823F0FF019B
:105698007B685A697B689B691A437B681B680A4365
:1056A800DA607B681B681A687B681B6842F0010235
:1056B8001A607B6800221A647B68202283F83D20E8
:1056C8007B6800221A637B68002283F83E2000234F
:1056D80018461037BD4680BD80B588B002AFF86067
:1056E800084611461A4603467B810B463B81134602
:1056F800FB80FFF7E5F97861FB88012B07D0FB8871
:10570800102B04D040F606217348FEF7EDFAFB682B
:1057180093F83D30DBB2202B40F0D9807B690093B1
:10572800192301226D49F86800F072F90346002B2D
:1057380001D00223CCE0FB6893F83C30012B01D167
:105748000223C5E0FB68012283F83C20FB681B6844
:105758001B6803F00103012B07D0FB681B681A685C
:10576800FB681B6842F001021A60FB681B681A6834
:10577800FB681B6822F400621A60FB68212283F828
:105788003D20FB68402283F83E20FB6800221A6413
:10579800FB683A6A5A62FB68BA8C5A85FB685B8D6B
:1057A8009AB2FB681A85FB684D4ADA62F8883A892A
:1057B80079897B690193BB6A00930346F86800F016
:1057C80091F80346002B52D0012381E07A69B96A27
:1057D800F86800F037FA0346002B0DD0FB681B6C05
:1057E800042B07D1FB681B681A68FB681B6842F426
:1057F80000721A6001236BE0FB685B6A1A78FB6829
:105808001B681A61FB685B6A5A1CFB685A62FB6872
:105818001B8D013B9AB2FB681A85FB685B8D9BB2B6
:10582800013B9AB2FB685A85FB681B685B6903F009
:105838000403042B1BD1FB681B8D002B17D0FB68BE
:105848005B6A1A78FB681B681A61FB685B6A5A1CFA
:10585800FB685A62FB681B8D013B9AB2FB681A858C
:10586800FB685B8D9BB2013B9AB2FB685A85FB686B
:105878001B8D002BAAD17A69B96AF86800F02AFA58
:105888000346002B0DD0FB681B6C042B07D1FB686B
:105898001B681A68FB681B6842F400721A600123CF
:1058A80016E0FB681B681A68FB681B6842F4007204
:1058B8001A60FB68202283F83D20FB68002283F8E9
:1058C8003E20FB68002283F83C20002300E00223EE
:1058D80018461837BD4680BD74D200080200100073
:1058E8000000FFFF80B588B002AFF8600846114697
:1058F8001A4603467B810B463B811346FB80FB68B7
:105908001B681A68FB681B6842F480721A607B6A1D
:1059180000933B6A00224FF00111F86800F078F814
:105928000346002B0DD0FB681B681B6803F48073CB
:10593800B3F5807F03D1FB684FF400721A64032328
:105948005FE07B89DBB21A46FB681B6802F0FE0247
:105958001A617B6A3A6A2D49F86800F0D3F8034661
:10596800002B01D001234CE000237B61FB681B68FE
:105978005B697B61FB681B689B697B617B697A6AF1
:10598800396AF86800F05EF90346002B0DD0FB6811
:105998001B6C042B07D1FB681B681A68FB681B6823
:1059A80042F400721A6001232BE0FB88012B05D119
:1059B8003B89DAB2FB681B681A6121E03B891B0A44
:1059C8009BB2DAB2FB681B681A617A6A396AF868AE
:1059D80000F038F90346002B0DD0FB681B6C042B34
:1059E80007D1FB681B681A68FB681B6842F40072E1
:1059F8001A60012305E03B89DAB2FB681B681A616B
:105A0800002318461837BD4680BD00BF02000100BC
:105A180080B584B000AFF860B9603B601346FB7195
:105A280048E03B68B3F1FF3F44D0FFF749F802462E
:105A3800BB69D31A3A689A4202D33B68002B39D122
:105A4800BB681B0CDBB2012B0DD1FB681B685B69C3
:105A5800DA43BB6813409BB2002B0CBF0123002321
:105A6800DBB21A460CE0FB681B689B69DA43BB682B
:105A780013409BB2002B0CBF01230023DBB21A4654
:105A8800FB799A4216D1FB6800221A63FB68202230
:105A980083F83D20FB68002283F83E20FB681B6CDE
:105AA80043F02002FB681A64FB68002283F83C205C
:105AB800012323E0BB681B0CDBB2012B0DD1FB6873
:105AC8001B685B69DA43BB6813409BB2002B0CBFB1
